:100000000C948E070C94B6070C94B6070C94B607A4
:100010000C94B6070C94B6070C94B6070C94B6076C
:100020000C94B6070C94B6070C94B6070C94B6075C
:100030000C94B6070C94B6070C94B6070C94B6074C
:100040000C94D2130C94B6070C9442140C941C1408
:100050000C94B6070C94B6070C94B6070C94B6072C
:100060000C94B6070C94B6072D2D2D2D2D2D2D2D6E
:100070002D2D2D2D2D2D2D2D2D2D2D2D2D2D2D2DB0
:100080002D2D2D2D2D2D2D2D2D2D2D2D2D2D2D2DA0
:100090002D2D2D2D2D2D2D2D2D002020202020200B
:1000A0002020202020202020202020004672616D6A
:1000B00065202020202020202020203A2000206DB4
:1000C0007329002054494D454F55542028002E00D7
:1000D000206D732900204F4B20280020205B4E6F9D
:1000E00020726573706F6E73655D202D2077616976
:1000F00074696E6700206D7329002054494D454F87
:1001000055542028002E00206D732900202800203F
:100110002057616974696E67005374696C6C206E56
:100120006F2070726573656E63652E2041626F7219
:1001300074696E672077726974652E00202053748D
:100140006F72653A206E6F2070726573656E6365BD
:100150002E00202057726974653A206E6F207072ED
:100160006573656E63652E00202041726D3A206EC6
:100170006F2070726573656E63652E00202041727A
:100180006D20616C72656164792069737375656453
:10019000202D20706F7765722D6379636C652072F6
:1001A000657175697265642E004E6F20707265739B
:1001B000656E636520656E746572696E672074652F
:1001C00073746D6F64652E002E0020205761697472
:1001D000696E6700206D732900204F4B202800575F
:1001E000616974696E6720666F72206261747465FC
:1001F00072792E2E2E002020427269646765204796
:1002000050494F322D4750494F3320666F72204F6F
:100210006D656761206C6F636B2E0020202773274C
:10022000203D2072657363616E207C206175746F60
:100230002D6465746563747320636F6E6E6563749B
:100240002F646973636F6E6E6563740020204D6167
:100250006B697461204D6F6E69746F72202D20532D
:1002600063616E202F20556E6C6F636B204D6F6441
:100270006500202052656D6F766520627269646743
:100280006520746F2073776974636820746F2073BE
:1002900063616E2F756E6C6F636B206D6F64652E7E
:1002A0000020204750494F322D4750494F3320629C
:1002B000726964676564202D3E204F4D454741209B
:1002C0004C4F434B204D4F444520286E7962626C61
:1002D00065203334290020204D616B697461204F03
:1002E0004D454741204C4F434B205574696C697410
:1002F00079202D2054797065732030202F203220F2
:100300002F2033206F6E6C7900312E362E30002076
:10031000204669726D7761726520760020205B4C03
:100320006F636B5D204641494C45442E0020205BA5
:100330004C6F636B5D204F4D454741204C4F434B05
:1003400045442E204E7962626C65203334207365FB
:1003500074206E6F6E2D7A65726F2E0020205B4CBC
:100360006F636B5D204E7962626C65203334203D93
:10037000200020205B4C6F636B5D204E6F20726508
:1003800073706F6E73652E0020205B4C6F636B5D26
:10039000200020205B4C6F636B5D20417474656DA1
:1003A0007074200020205B4C6F636B5D2042617491
:1003B0007465727920616C7265616479204F4D4576
:1003C0004741204C4F434B454420286E7962626C74
:1003D0006520333420213D2030292E00756E737541
:1003E00070706F727465642028352C20362C206F55
:1003F0007220756E6B6E6F776E292E0020205B4C1D
:100400006F636B5D20547970653A200020205B4C4F
:100410006F636B5D205741524E494E473A20524F11
:100420004D2049442072656164206661696C656491
:100430002E0020205B4C6F636B5D204552524F5263
:100440003A204E6F2076616C6964206672616D653A
:100450002E0020205B4C6F636B5D205072652D7405
:100460007970652D302048433038202D20756E730B
:100470007570706F727465642E005741524E494E0C
:10048000473A20524F4D20494420726561642066EE
:1004900061696C65643B207573696E672066616C89
:1004A0006C6261636B207479706520646574656348
:1004B00074696F6E2E0042414420E2809420556E94
:1004C0006B6E6F776E202800424144202831352919
:1004D00020E28094205265616C2063617020756E0B
:1004E00064657220373025206F6620726174656400
:1004F000004661756C7420287375622D6361757395
:100500006520756E636C656172290043656C6C20B3
:10051000696D62616C616E6365203E3330306D568B
:100520002061742069646C650043656C6C206F7693
:100530006572766F6C746167652028342E3232568E
:100540002900454550524F4D207265616420657207
:10055000726F72004E54432074656D7065726174E1
:1005600075726520646966666572656E6365203EB6
:10057000353043004241442028372920E28094202E
:10058000004241442028352920E28094205761729E
:100590006E696E67004241442028342920E280942D
:1005A000204661756C7420287375622D63617573C4
:1005B00065206E6F7420796574206D61707065645C
:1005C00029004368617267696E67206661756C74A3
:1005D0000043656C6C206F766572766F6C74616732
:1005E00065207768696C65206368617267696E670A
:1005F0002028342E33375629004675736520626CE7
:100600006F776E206F72206D6F73666574207368EC
:100610006F72746564004241442028332920E280CF
:100620009420004241442028312920E28094204F28
:1006300076657263757272656E74202F206F7665B1
:10064000726C6F6164004F4B2028302900202043DA
:100650005332206D69736D617463682020202020FF
:10066000286E7962626C65732033322D3430290034
:100670002020435330206D69736D617463682020BE
:10068000202020286E7962626C657320302D313510
:1006900029004C6F636B20636175736573202020A4
:1006A000203A004572726F7220636F756E746572C6
:1006B00073203A20004572726F72207374617475F2
:1006C000732020203A203062004E7962626C6520EF
:1006D000343020636F6465203A20004279746520CD
:1006E00031206F726967696E20203A204F6C642058
:1006F00066616D696C79202833312900427974650F
:100700002031206F726967696E20203A2056696532
:10071000746E616D2F53616D73756E67202833366B
:100720002900427974652031206F726967696E20F3
:10073000203A204368696E612F4D757261746120A3
:100740002832362900424144004F4B0042414400C8
:100750004F4B00417578204353756D2034382D364A
:1007600031203A2000424144004F4B00417578202F
:100770004353756D2034342D3437203A20004241E4
:1007800044004F4B00436865636B73756D203332D3
:100790002D3430203A2000424144004F4B00436842
:1007A00065636B73756D2031362D3331203A20002F
:1007B0004E6F0059455300436865636B73756D2038
:1007C000302D313520203A2000554E4C4F434B45BB
:1007D00044004C4F434B45440043656C6C206661BC
:1007E000696C7572652020203A20004C6F636B2085
:1007F000737461747573202020203A2000202F200C
:1008000037005374617465206F6620636861726796
:10081000653A200043656C6C20696D62616C616EA5
:100820006365203A2000286E6F2063656C6C73202E
:100830007265706F7274656429005061636B207615
:100840006F6C746167652020203A20007320746FFC
:1008500020726563616C632900732061676F2028D3
:100860007E004C61737420534F4320526563616C6A
:10087000633A20002041680052656D61696E696EBF
:10088000672063686720203A2000202500537461A8
:100890007465206F66204368617267653A200020A6
:1008A000410043757272656E742044726177202036
:1008B000203A200020430054656D7020284D6F734E
:1008C0006665742920203A200020430054656D702D
:1008D000202843656C6C73292020203A20002025B5
:1008E000004F7665726C6F616420252020202020E7
:1008F0003A20002025004F442025202020202020C1
:1009000020202020203A2000202500302E302025D5
:10091000004F7665726C6F616420252020202020B6
:100920003A20004F7665726C6F616420232020208E
:1009300020203A2000202500302E302025004F7640
:10094000657264697363686172676520253A200087
:100950004F76657264697363686172676520233AD4
:100960002000202F2034202028004865616C746806
:100970002020202020202020203A20004379636C72
:100980006520636F756E74202020203A200020417E
:1009900068004265737420636170616369747920D3
:1009A000203A2000204168004C6561726E65642029
:1009B000636170202020203A2000204168005261AD
:1009C000746564206361706163697479203A200002
:1009D00031302063656C6C20424C333678780035BA
:1009E0002063656C6C20424C313878780034206389
:1009F000656C6C20424C3134787800202028004609
:100A0000616D696C792074797065202020203A200E
:100A10000044657465637465642074797065202092
:100A20003A200028756E617661696C61626C652997
:100A3000004D6667206461746520202020202020FE
:100A40003A2000524F4D20494420202020202020D1
:100A500020203A20004D6F64656C2020202020204B
:100A6000202020203A200020204E6F2072657370D5
:100A70006F6E736520647572696E67207665726942
:100A800066792E0020200020205265706169722056
:100A90006672616D65203A200042617474657279F6
:100AA000207374696C6C206C6F636B65642E0042FC
:100AB00061747465727920737563636573736675A9
:100AC0006C6C7920756E6C6F636B65642E002020F2
:100AD0002D3E204672616D652072657061697220DD
:100AE0006661696C65642E0020202D3E2053746978
:100AF0006C6C206C6F636B65642E20526574727928
:100B0000696E672E0020202D3E20554E4C4F434BE2
:100B100045442E003A204672616D65207265706111
:100B20006972002D2D2D20417474656D7074200044
:100B300020202D3E205374696C6C206C6F636B65B4
:100B4000642E20547279696E67206672616D65202B
:100B50007265706169722E0020202D3E20554E4C2A
:100B60004F434B454420627920444130342E002DC0
:100B70002D2D20417474656D707420313A204441EC
:100B800030342072657365740042617474657279E3
:100B9000204C4F434B45442E002E20536B69707000
:100BA000696E672E00556E6C6F636B206E6F7420DC
:100BB000737570706F7274656420666F72207479DB
:100BC000706520004261747465727920554E4C4FF7
:100BD000434B45442E00436F6D706C6574652E0069
:100BE0005620E2809420636865636B2062616C61CB
:100BF0006E63696E6720746162732E005741524EB6
:100C0000494E473A2043656C6C20696D62616C61A6
:100C10006E636520005741524E494E473A20766F29
:100C20006C746167652072656164206661696C65DA
:100C3000643B2063656C6C2064617461206D617934
:100C4000206265206D697373696E672E004261745E
:100C5000746572792072656D6F7665642064757253
:100C6000696E67207363616E2E2041626F727469D2
:100C70006E672E004261747465727920666F756EBE
:100C80006420203A20002020202020202020204402
:100C90004F204E4F5420636861726765206F6E204D
:100CA000616E7920636861726765722E0020202072
:100CB000202020202020467265657363616C6520CA
:100CC0004D433930384A4B334520424D53202D2D6A
:100CD000206E6F2063656C6C2070726F7465637436
:100CE000696F6E2E005741524E494E473A2050725E
:100CF000652D747970652D3020484330382062614D
:100D00007474657279206465746563746564210028
:100D10004552524F523A2042617474657279206E86
:100D20006F7420726573706F6E64696E67206166A0
:100D300074657220726574726965732E2041626FEA
:100D40007274696E672E00202052656D6F76652083
:100D50006261747465727920616E642074727920A6
:100D6000616761696E2E002020426174746572793A
:100D70002072656D6F7665642E2057616974696EA7
:100D8000672E2E2E0020205B4C6F636B5D2042612E
:100D900074746572792072656D6F7665642E205764
:100DA000616974696E6720666F72206E6578742E53
:100DB0002E2E00202042617474657279206465745F
:100DC0006563746564202D207374617274696E6745
:100DD000207363616E2E0020205B4C6F636B5D207F
:100DE00042617474657279206465746563746564C6
:100DF000202D206F6D656761206C6F636B696E6776
:100E00002E2E2E004D616E75616C207265736361CC
:100E10006E207265717565737465642E00202042C2
:100E200072696467652072656D6F7665642E20490E
:100E30006E73657274206261747465727920746F68
:100E4000207363616E2E0020204D6F6465206368FF
:100E5000616E676564202D3E205343414E202F2054
:100E6000554E4C4F434B204D4F444500202047509A
:100E7000494F322D4750494F33206272696467658C
:100E8000642E20496E736572742062617474657299
:100E90007920746F206C6F636B2E0020204D6F647F
:100EA00065206368616E676564202D3E204F4D4567
:100EB0004741204C4F434B204D4F4445000000001C
:100EC00000240027002A00000000080002010000A2
:100ED00003040700000000000000000000000025DF
:100EE0000028002B00000000002300260029000439
:100EF00004040404040404020202020202030303C1
:100F000003030301020408102040800102040810BA
:100F100020010204081020007414492C11241FBE63
:100F2000CFEFD8E0DEBFCDBF12E0A0E0B1E0E6E158
:100F3000F6E602C005900D92AE36B107D9F723E070
:100F4000AEE6B2E001C01D92A035B207E1F717E0AE
:100F5000CDE8D7E004C02197FE010E949B2CCC383D
:100F6000D107C9F70E9443150C94FE320C9400007F
:100F700080913E03E0913F03F0914003F89491810A
:100F8000282F20959223918378943DE743E050E009
:100F9000315029F1DA011197F1F790819823C1F3CB
:100FA000F8949281922392839181982B91837894E3
:100FB000A3EBBBE01197F1F7F89491819223918311
:100FC000A3E1B1E01197F1F79081982381E009F056
:100FD00080E07894E3E6F6E03197F1F7089580E059
:100FE0000895EF92FF920F931F93CF93DF9328E022
:100FF00030E080E041E0A3E2B0E09FECE92EF12C8C
:1010000090913E03E0913F03F0914003F8945181A9
:10101000592B51836281792F7095672362838D01EB
:10102000ED012197F1F7518157235183E801219771
:10103000F1F750817894F7013197F1F7952309F092
:10104000842B440F21503109D9F6DF91CF911F91A4
:101050000F91FF90EF900895CF92DF92EF92FF9261
:101060000F931F93CF93DF9328E030E041E06BE8CC
:1010700071E093E7C92ED12CCBE2D0E00BED11E06B
:1010800090913E03E0913F03F0914003F92EF094DC
:10109000582F542389F1F89452815F215283518152
:1010A000592B5183DE011197F1F75281952B9283D1
:1010B0007894F8013197F1F7440F2150310901F785
:1010C000F894E0913F03F0914003918180913E03B9
:1010D000809598239183E0913F03F09140039281A2
:1010E000892382837894DF91CF911F910F91FF9094
:1010F000EF90DF90CF900895F89452815F21528352
:101100005181592B5183DB011197F1F75281952BB6
:1011100092837894F601CECF833081F028F4813029
:1011200099F08230A9F008958730A9F08830C9F08D
:101130008430B1F4809180008F7D03C08091800065
:101140008F7780938000089584B58F7784BD08954C
:1011500084B58F7DFBCF8091B0008F778093B000F6
:1011600008958091B0008F7DF9CFCF93DF93EAECA3
:10117000FEE08491E6E0FFE0D491E2EFFEE0C4916E
:10118000CC23A1F081110E948C08EC2FF0E0EE0F2F
:10119000FF1FEB51F14FA591B491EC91ED2381E04C
:1011A00090E009F480E0DF91CF91089580E090E035
:1011B000FACF1F93CF93DF93282F30E0F901E95343
:1011C000F14F8491F901ED5FF04FD491F901E151B4
:1011D000F14FC491CC23A9F0162F81110E948C08E5
:1011E000EC2FF0E0EE0FFF1FE552F14FA591B49107
:1011F0008FB7F894EC91111108C0D095DE23DC93E1
:101200008FBFDF91CF911F910895DE2BF8CFCF9341
:10121000DF9390E0FC01ED5FF04F24918151914FFD
:10122000FC0184918823C9F090E0880F991FFC018C
:10123000E354F14FA591B491FC01E552F14FC591F2
:10124000D49161110DC09FB7F8948C9120958223A1
:101250008C938881282328839FBFDF91CF910895A5
:10126000623051F49FB7F8943C91822F809583238C
:101270008C93E8812E2BEFCF8FB7F894EC912E2B27
:101280002C938FBFEACF3FB7F8948091860290915C
:101290008702A0918802B091890226B5A89B05C05B
:1012A0002F3F19F00196A11DB11D3FBFBA2FA92FE5
:1012B000982F8827BC01CD01620F711D811D911DE2
:1012C00042E0660F771F881F991F4A95D1F708954E
:1012D0008F929F92AF92BF92CF92DF92EF92FF9246
:1012E0006B017C010E9443094B015C01C114D104D4
:1012F000E104F104B9F00E944309681979098A09E7
:101300009B09683E73408105910580F321E0C21A74
:10131000D108E108F10888EE880E83E0981EA11C30
:10132000B11CE4CFFF90EF90DF90CF90BF90AF90D3
:101330009F908F9008952FB7F894609182027091DA
:10134000830280918402909185022FBF0895262FF9
:101350002695820F911DFC01808160FD02C08F7077
:1013600008958295FCCFAF92BF92CF92DF92EF9219
:10137000FF920F931F93CF93DF936C017B018B013F
:10138000040F151FEB015E01AE18BF08C017D1078F
:1013900059F06991D601ED91FC910190F081E02D19
:1013A000C6010995892B79F7C501DF91CF911F916E
:1013B0000F91FF90EF90DF90CF90BF90AF90089586
:1013C000FC01538D448D252F30E0842F90E0821B4B
:1013D000930B541710F0CF96089501970895FC01D0
:1013E000918D828D981761F0A28DAE0FBF2FB11D28
:1013F0005D968C91928D9F5F9F73928F90E0089580
:101400008FEF9FEF0895FC01918D828D981731F039
:10141000828DE80FF11D858D90E008958FEF9FEF8D
:101420000895FC01918D228D892F90E0805C9F4F63
:10143000821B91098F73992708958BE892E00E948F
:10144000110A21E0892B09F420E0822F089580E021
:1014500090E0892B29F00E941D0A81110C94000054
:101460000895FC01A48DA80FB92FB11DA35ABF4F39
:101470002C91848D90E001968F739927848FA68993
:10148000B7892C93A089B1898C91837080648C93E7
:10149000938D848D981306C00288F389E02D808196
:1014A0008F7D80830895EF92FF920F931F93CF93C8
:1014B000DF93EC0181E0888F9B8D8C8D98131AC08F
:1014C000E889F989808185FF15C09FB7F894EE8976
:1014D000FF896083E889F9898081837080648083D3
:1014E0009FBF81E090E0DF91CF911F910F91FF901E
:1014F000EF900895F62E0B8D10E00F5F1F4F0F73C6
:101500001127E02E8C8D8E110CC00FB607FCFACF80
:10151000E889F989808185FFF5CFCE010E94310AE3
:10152000F1CFEB8DEC0FFD2FF11DE35AFF4FF08251
:101530009FB7F8940B8FEA89FB8980818062CFCFB7
:101540000F931F93CF93DF938C01D0E0C0E0F8019D
:10155000EC0FFD1F6491662341F08BE892E00E943E
:10156000530A892B11F02196F2CFCE01DF91CF9152
:101570001F910F910895682F8BE892E00C94530A05
:10158000CF93DF93EC01888D8823B9F0AA89BB89BA
:10159000E889F9898C9185FD03C0808186FD0DC0A5
:1015A0000FB607FCF7CF8C9185FFF2CF808185FFC6
:1015B000EDCFCE010E94310AE9CFDF91CF9108959E
:1015C000FF920F931F93CF93DF938C01C62FF42EBE
:1015D000D0E0FC1638F06C2FC8010E94A709D80F84
:1015E000CF5FF7CF8D2F8F70DF91CF911F910F912C
:1015F000FF900895CF92DF92EF92FF920F931F9387
:10160000CF93DF938C01EB018A898D3008F46FC092
:101610008E3108F06EC085E08AAB6B8970E090E097
:1016200080E00E94BD2D20E030E040E251E40E94C5
:10163000132D6BAB7CAB8DAB9EAB4FE060E0C80174
:101640000E94E00AC82EDA8C81E0CD1080E088AFDD
:101650004FE160E1C8010E94E00A91E02B8D281360
:1016600090E099AF48E260E2C8010E94E00AE82EEB
:10167000FC8C81E0EF1080E08AAF4FE26CE2C801A1
:101680000E94E00A91E02D8D281390E09BAF4DE37E
:1016900060E3C8010E94E00A91E02E8D281390E0DB
:1016A0009CAFCD1028C01EAE1DAEEF1429F08DAD3D
:1016B0009EAD88609EAF8DAF62E2C8010E94A7090F
:1016C000882329F08DAD9EAD80649EAF8DAF81E003
:1016D0002DAD3EAD232B09F480E08FABDF91CF9190
:1016E0001F910F91FF90EF90DF90CF90089584E0CD
:1016F00093CF8AE091CF82E090E09EAF8DAFD5CFBF
:101700000F931F93CF93DF938C01D42F0E94A709CF
:10171000C82F6D2FC8010E94A70990E1C99FE00161
:1017200011248C2BDF91CF911F910F910895CF92AF
:10173000DF92EF92FF920F931F93CF93DF93EC0111
:101740008B0147E166E10E94800BF801808341E252
:1017500060E2CE010E94800BF801818368E2CE0135
:101760000E94A709F801828341E360E3CE010E9451
:10177000800BF801838343E362E3CE010E94800B78
:10178000F80184836CE2CE010E94A70982FB8827BE
:1017900080F9F801878364E3CE010E94A709D82E5F
:1017A00065E3CE010E94A709C82E66E3CE010E9420
:1017B000A709F0E18F9F70011124FC2867E3CE0197
:1017C0000E94A7092D2D30E0322F22273295307F3D
:1017D00022273071E82A2E293F29F80136832583F4
:1017E00069E2CE010E94A709F80180876AE2CE0172
:1017F0000E94A709F80181876BE2CE010E94A70928
:10180000F80182876EE3CE010E94A709F801838761
:101810006FE3CE010E94A709F8018487DF91CF9181
:101820001F910F91FF90EF90DF90CF90089560E0AF
:1018300088E00C94D908CF92DF92EF92FF920F9339
:101840001F93CF93DF93CDB7DEB729970FB6F894E8
:10185000DEBF0FBECDBF282F80912A0390912B03AE
:10186000892B09F449C0872F90E0B0E0A0E0BA2F9F
:10187000A92F982F8827A62B822BAD0166277727C3
:10188000C92EDA2EEB2EFF241C2D382F2091300389
:10189000222391F0022F10E0049FF001059FF00D2C
:1018A000149FF00D11244F2F2C9D600111241D2D2C
:1018B000289FC0011124392FE09136038091310314
:1018C0009091320320913303E21721F0E80FF92FB2
:1018D000F11D1082E0913303E80FF92FF11D4083D1
:1018E000E0913403E80FF92FF11D108320913503A7
:1018F000820F911DFC01308380913103909132035E
:10190000892B09F47CC00E94430900913703109190
:1019100038032091390330913A0360177107820729
:10192000930740F46093370370933803809339032F
:1019300090933A03009137031091380320913903B3
:1019400030913A03601B710B820B930B6C32714028
:1019500081059105C0F2F89480912C0390912D039C
:101960009A838983E0913103F0913203DF0111966C
:101970008081898790912803E0913B03F0913C039B
:1019800080913D03992309F449C09081982B988751
:101990009081809589238F838F818C8388E08B83CE
:1019A00058856F8149853B812C8189819A8150833B
:1019B00047FD252F3A952083262F39F0441F00C07C
:1019C00000006083000000C0F2CF38E04D916083DA
:1019D0000000019761F7F0933C03E0933B034987D4
:1019E0003B832C839A83898378940E944309609374
:1019F0003703709338038093390390933A03299601
:101A00000FB6F894DEBF0FBECDBFDF91CF911F910F
:101A10000F91FF90EF90DF90CF9008959081982BD9
:101A200098879081809589238F838F818E8388E02A
:101A30008D8358856F8149853D812E8189819A8169
:101A4000508347FD252F00C000C0208300C000C088
:101A500000C000C000C060830000262F3A9541F00E
:101A6000441F000000C000C000C000C000C0E8CF9C
:101A700038E04D9100C0608300C0019709F7F093F2
:101A80003C03E0933B0349873D832E83ABCF6091BA
:101A9000120170911301809114010C941B0C609140
:101AA0000F0170911001809111010C941B0CCF92C9
:101AB000DF92EF92FF926B017C0185EFC81681E007
:101AC000D806E104F10468F064EF71E080E090E092
:101AD0000E94680984EFC81A81E0D80AE108F10879
:101AE000ECCFC701B601FF90EF90DF90CF900C9440
:101AF000680961E088E00E94D90866E970E080E04A
:101B000090E00C94570D8F929F92BF92CF92DF92EC
:101B1000EF92FF920F931F93CF93DF93F82EC62F70
:101B2000D42EC52EB22E81110E94790D0E94B807C5
:101B3000811111C0F1100E94170C81E090E0DF913B
:101B4000CF911F910F91FF90EF90DF90CF90BF90BA
:101B50009F908F9008958C2F0E942C08C33389F496
:101B6000E801085F1F4F23E6822E99249394C40155
:101B70000197F1F70E94F1078993C017D107B9F7D0
:101B80008E019D2CCD2DDC2D93E6C92EDD24D39422
:101B9000C6010197F1F789910E942C088C2F8919B1
:101BA0008B15B0F38BE891E00197F1F7E8010E0D8A
:101BB000111D83E6C82EDD24D394C017D10739F058
:101BC000C6010197F1F70E94F1078993F6CFF11052
:101BD0000E94170C90E080E0B2CFEF920F931F931A
:101BE000CF93DF93CDB7DEB728970FB6F894DEBF5B
:101BF0000FBECDBF262F8E010F5F1F4F38E0F801BB
:101C000011923A95E9F7E12CAC0163E381E00E947F
:101C1000830D28960FB6F894DEBF0FBECDBFDF91BF
:101C2000CF911F910F91EF900895EF920F931F9313
:101C3000E22E8A01262FAC016CEC80E00E94830D1D
:101C40001F910F91EF900895EF920F931F93E22E43
:101C50008A01262FAC016CEC81E00E94830D1F915C
:101C60000F91EF9008950F931F93CF938B01C42F83
:101C7000242FAB0164E00E94240E892B41F4F8016B
:101C8000EC0FF11D319781E09081963009F080E0F2
:101C9000CF911F910F910895CF93DF93D82FC92F24
:101CA00020E2482F592F62E08BE191E00E94240E40
:101CB000892BB1F4ED2FFC2FAF01405E5F4F8FEF0A
:101CC00090E02191922B8223E417F507D1F7992315
:101CD00039F08F3F41F081E090E0DF91CF9108959E
:101CE00090E080E0FACF8FEF9FEFF7CF0E94170CC4
:101CF00010928A0264E670E080E090E00E94570D46
:101D00000C94790DCF93DF931F92CDB7DEB78091FE
:101D10007102882391F0198221E0AE014F5F5F4F7D
:101D200063E088E191E00E94240E109271026EE15E
:101D300070E080E090E00E94570D0F90DF91CF910E
:101D400008950F931F93CF93DF931F92CDB7DEB704
:101D5000198221E0AE014F5F5F4F63E085E191E0C2
:101D60000E94240E8C01892B49F481E0809371023A
:101D70006EE170E080E090E00E94570DC8010F9086
:101D8000DF91CF911F910F910895CF92DF92EF9243
:101D9000FF921F93CF93DF93CDB7DEB7A2970FB615
:101DA000F894DEBF0FBECDBFFC018381843628F4DA
:101DB00085E0442349F08FEF07C0FB0181898E3114
:101DC00089F486E04111F7CFA2960FB6F894DEBFF2
:101DD0000FBECDBFDF91CF911F91FF90EF90DF90AD
:101DE000CF900895142FAE014E5E5F4F81E1FA014E
:101DF00011928A95E9F721E162E083E291E00E9485
:101E0000240E892B29F48AA1863011F480E0DCCFDE
:101E10000E94A10E9E012F5F3F4F7901892BC1F4D3
:101E200081E1F90111928A95E9F721E1A70162E0C8
:101E300081E291E00E94240E6C010E94820E0E94B9
:101E4000760ECD2829F48989863011F482E0BCCF42
:101E500019821A821B8223E0A70164E08DE191E0E0
:101E60000E94240E892B19F48B81863019F0812F62
:101E70008195AACF83E0A8CFCF9361E088E00E944C
:101E8000D90866E970E080E090E00E94570D0E945A
:101E9000B807C82F60E088E00E94D90881E0C1300F
:101EA00009F080E0CF910895CF92DF92EF92CF9327
:101EB0006B01E82E10927202C3E08E2DB6010E94D3
:101EC0001B0C68EC70E080E090E00E94570D0E94CF
:101ED0004F0D64E670E080E090E00E94570DC15025
:101EE00061F78E2DB601CF91EF90DF90CF900C94DB
:101EF0001B0C882339F09EEF980F81E0923018F088
:101F000080E0089581E00895EF92FF920F931F9370
:101F1000CF93DF93E82EEB01F42E152F022F61E013
:101F200088E00E94D9080E94B80781110CC060E0C7
:101F300088E00E94D90880E0DF91CF911F910F9136
:101F4000FF90EF900895EE2039F08CEC0E942C0861
:101F500083E691E00197F1F788810E942C0883E6DF
:101F600091E00197F1F7CF2DD12F0C0F1D2F111DEF
:101F700083E6E82EFF24F394C017D10739F00E94BE
:101F8000F1078993C7010197F1F7F6CF60E088E088
:101F90000E94D90881E0D0CFFC0101900020E9F730
:101FA0003197AF01481B590BBC018BE892E00C94B0
:101FB000B30985E891E00C94CC0FCF93DF930E9496
:101FC000A00AEC010E94D90F8C0F9D1FDF91CF91C9
:101FD000089588E690E00C94DD0FCF93DF9389E2BB
:101FE0000E94BB0AEC010E94D90F8C0F9D1FDF914C
:101FF000CF9108958F929F92AF92BF920F931F93AC
:10200000CF93DF93CDB7DEB7A1970FB6F894DEBFBD
:102010000FBECDBF19A2423008F44AE08E010F5D19
:102020001F4F842E912CB12CA12CA50194010E944C
:10203000792CE62FB901CA01EA30F4F4E05DD80149
:10204000EE938D01232B242B252B79F790E080E054
:10205000109719F0CD010E94CC0FA1960FB6F894FD
:10206000DEBF0FBECDBFDF91CF911F910F91BF900B
:10207000AF909F908F900895E95CE1CF462F682F35
:1020800070E090E080E00C94FA0FCF93DF930E9411
:102090003E10EC010E94D90F8C0F9D1FDF91CF9154
:1020A00008950F931F93CF93DF93D82FC92FCB01A0
:1020B000009711F48CEA90E00E94A00A0D2F1C2FCB
:1020C000C0E0DBE0F80181918F01803118F480E3FA
:1020D0000E94BB0A60E170E0F801319780810E94A4
:1020E0003E10CF3119F080E20E94BB0ACF5FC032B0
:1020F00031F4DF91CF911F910F910C94D90F8C2F58
:102100006D2F0E94592C9111DDCF0E94D90F8AE9C1
:1021100090E00E94A00AD6CFCF92DF92EF92FF927A
:10212000CF93DF936C01092E000CEE08FF0897FF98
:102130001BC08DE20E94BB0AEC0166277727CB010A
:102140006C197D098E099F094AE00E94FA0FC80F99
:10215000D91F0E94D90F8C0F9D1FDF91CF91FF9047
:10216000EF90DF90CF9008954AE0C701B6010E943A
:10217000FA0FEC01EECFCF92DF92EF92FF92CF9366
:10218000DF93EC018FE091E00E94A00A0E949B097E
:102190006B017C010E949B096C197D098E099F09C6
:1021A000603177428105910558F5CE010E944C0EB1
:1021B0000197F9F40E949B099B01AC012C193D0980
:1021C0004E095F0969017A018CE091E00E94A00A42
:1021D0004AE0C701B6010E94FA0F87E091E00E9431
:1021E000DD0F81E0DF91CF91FF90EF90DF90CF90F6
:1021F000089585E091E00E94A00A0E94760ECACF61
:102200008AEF90E00E94A00A4AE060E177E280E075
:1022100090E00E94FA0F85EF90E00E94DD0F80E0D1
:10222000E1CFCF92DF92EF92FF928BED90E00E9490
:10223000A00A0E949B096B017C010E949B096C19FA
:102240007D098E099F09603177428105910540F52E
:102250000E94760E0E94B8078130E9F40E949B0923
:102260009B01AC012C193D094E095F0969017A01F6
:1022700085ED90E00E94A00A4AE0C701B6010E94E5
:10228000FA0F80ED90E00E94DD0F81E0FF90EF906B
:10229000DF90CF9008958EEC90E00E94A00ACDCF01
:1022A00083EC90E00E94A00A4AE060E177E280E0DF
:1022B00090E00E94FA0F8EEB90E00E94DD0F80E02C
:1022C000E5CF8F929F92AF92BF92CF92DF92EF9223
:1022D000FF920F931F93CF937C010E949B094B01A8
:1022E0005C01C0E00E949B09681979098A099B0971
:1022F0006031774281059105C0F5C7010E944C0EFF
:102300008C01892B21F1CC23A9F00E949B096B0140
:102310007C01C818D908EA08FB0889ED91E00E9401
:10232000A00A4AE0C701B6010E94FA0F84ED91E0CD
:102330000E94DD0FC801CF911F910F91FF90EF9088
:10234000DF90CF90BF90AF909F908F900895C11174
:1023500004C08AEC91E00E94A00A88EC91E00E94FF
:10236000A00A0E94760EC1E0BDCFC1110E94D90F14
:102370000E94111110E000E08823E1F2C701CF9123
:102380001F910F91FF90EF90DF90CF90BF90AF9093
:102390009F908F900C944C0ECF93DF93D0E0C0E0D1
:1023A000009719F00E94CC0FEC010E94D90F8C0FFE
:1023B0009D1FDF91CF9108954F925F926F927F9210
:1023C0008F929F92AF92BF92CF92DF92EF92FF9245
:1023D0000F931F93CF936B017C01742EAC019B0173
:1023E0000E94DF2E882399F088E891E0CF911F9119
:1023F0000F91FF90EF90DF90CF90BF90AF909F90A4
:102400008F907F906F905F904F900C94CC0F46010F
:102410005701E894B7F82FEF3FEF4FE75FE7C501AB
:10242000B4010E94DF2E81110DC02FEF3FEF4FE767
:102430005FE7C501B4010E940E2D18161CF48CE84C
:1024400091E0D4CF2FEF3FEF4FE75FE4C701B60134
:102450000E946D2E18161CF480E991E0C7CF2FEF73
:102460003FEF4FE75FECC701B6010E940E2D87FDDD
:10247000F3CF20E030E0A901C701B6010E940E2D84
:1024800010E000E087FF08C08DE20E94BB0A8C01CB
:10249000F7FAF094F7F8F094C0E060E070E080E0C4
:1024A0009FE37C1641F020E030E040E251E40E94DE
:1024B000132DCF5FF6CFA70196010E94A22C2B010E
:1024C0003C010E948C2D4B015C014AE00E94FA0FF6
:1024D0007C01E00EF11ECC23B1F1C501B4010E94D4
:1024E000BB2D9B01AC01C301B2010E94A12C4B0189
:1024F0005C018EE20E94BB0AE80EF91EC15018F181
:1025000020E030E040E251E4C501B4010E94722EA7
:102510002B013C010E948C2D4B01B12CA12C4AE0D7
:10252000C501B4010E94FA0FE80EF91EC501B401FD
:102530000E94BB2D9B01AC01C301B2010E94A12CE2
:102540004B015C01DBCFC701CF911F910F91FF9031
:10255000EF90DF90CF90BF90AF909F908F907F9043
:102560006F905F904F900895CF93DF9343E00E9468
:10257000DC11EC010E94D90F8C0F9D1FDF91CF91D0
:1025800008950C94DC118F929F92AF92BF92CF92DC
:10259000DF92EF92FF920F931F93CF93DF93CDB70C
:1025A000DEB7A8970FB6F894DEBF0FBECDBF4B01C4
:1025B0005A01F22E9E012F5F3F4F690128E2F6017A
:1025C00011922A95E9F7EF2C860122E0AC0163E332
:1025D00081E00E94830D8C01892B79F488E0F6015B
:1025E000D40101900D928A95E1F74F2D50E0BE0184
:1025F000675F7F4FC5010E940930C801A8960FB6DA
:10260000F894DEBF0FBECDBFDF91CF911F910F9128
:10261000FF90EF90DF90CF90BF90AF909F908F9002
:1026200008950F931F93CF93DF93CDB7DEB7A09795
:102630000FB6F894DEBF0FBECDBF8C01AE014F5F69
:102640005F4F80E2FA0111928A95E9F720E2B80122
:102650008BE191E00E94C312892B89F088E0F80198
:1026600011928A95E9F780E0A0960FB6F894DEBF44
:102670000FBECDBFDF91CF911F910F91089581E0E3
:10268000F3CFEF92FF920F931F93CF93DF93CDB7CA
:10269000DEB7A2970FB6F894DEBF0FBECDBF7C01A8
:1026A0008B010E94A10E892BC9F0C8010E94A00ACB
:1026B00089EA91E00E94DD0F0E941111882309F43C
:1026C00064C00E94A10E892B49F0C8010E94A00A93
:1026D00089E191E00E94DD0F80E057C080918A027D
:1026E000882349F08CE791E00E94DD0F0E94820E62
:1026F0000E94760EF1CF8E010F5F1F4F80E2F8012E
:1027000011928A95E9F720E2A80162E087E291E060
:102710000E94240E892B19F088E691E0E5CF81E034
:1027200080938A026EE170E080E090E00E94570D95
:102730008FE089831A8280E2F701DE01139601900F
:102740000D928A95E1F762E2C8010E94ED0D892B96
:1027500019F082E591E0C8CF6EE170E080E090E092
:102760000E94570D62E085E291E00E94ED0D892BF9
:1027700019F08CE391E0B8CF6EE170E080E090E07A
:102780000E94570D0E94820E81E0A2960FB6F89427
:10279000DEBF0FBECDBFDF91CF911F910F91FF9094
:1027A000EF9008951F920F920FB60F9211242F935E
:1027B0003F938F939F93AF93BF93809182029091A9
:1027C0008302A0918402B09185023091810223E0BE
:1027D000230F2D3758F50196A11DB11D20938102BD
:1027E0008093820290938302A0938402B093850227
:1027F0008091860290918702A0918802B09189020F
:102800000196A11DB11D8093860290938702A0932B
:102810008802B0938902BF91AF919F918F913F91B0
:102820002F910F900FBE0F901F90189526E8230F41
:102830000296A11DB11DD2CF1F920F920FB60F921B
:1028400011242F933F934F935F936F937F938F93B5
:102850009F93AF93BF93EF93FF938BE892E00E9417
:10286000310AFF91EF91BF91AF919F918F917F912D
:102870006F915F914F913F912F910F900FBE0F90ED
:102880001F9018951F920F920FB60F9211242F933D
:102890008F939F93EF93FF93E0919B02F0919C02A3
:1028A0008081E091A102F091A20282FD1BC0908183
:1028B0008091A4028F5F8F732091A502821741F04F
:1028C000E091A402F0E0E557FD4F958F8093A402BC
:1028D000FF91EF919F918F912F910F900FBE0F90CD
:1028E0001F9018958081F4CF10928E0210928D0265
:1028F00088EE93E0A0E0B0E080938F029093900286
:10290000A0939102B093920287E791E090938C029A
:1029100080938B0285EC90E09093980280939702CD
:1029200084EC90E090939A028093990280EC90E07E
:1029300090939C0280939B0281EC90E090939E0286
:1029400080939D0282EC90E09093A00280939F027E
:1029500086EC90E09093A2028093A1021092A402D0
:102960001092A5021092A6021092A70260E086E0E3
:102970000E940709E9E0FFE0E491E0933E03E5EF00
:10298000FEE0E491F0E0EE0FFF1FEB51F14F859177
:1029900094919093400380933F03109249031092C7
:1029A0004B0310924A03109248031092470310926F
:1029B0004603109245031092440310924303109271
:1029C0004203109241031092290310923003109297
:1029D0003703109238031092390310923A0381E0C2
:1029E00080933603809333031092340392E09093E4
:1029F00035038093280383E090E090932D03809328
:102A00002C030E94E42E90933203809331030097AD
:102A100089F123E0FC0111922A95E9F781E090E029
:102A200090932B0380932A0380E190E090932F03EF
:102A300080932E0380912903882341F061E080E197
:102A40000E94070960E080E10E94D908EFEFFEE0F4
:102A5000E491F0E0EE0FFF1FE552F14F8591949164
:102A600090933C0380933B03E3E1FFE0E491E09328
:102A70003D03089510922D0310922C0310922B0306
:102A800010922A03D1CFCF93DF93CDB7DEB7C959C8
:102A9000D2400FB6F894DEBF0FBECDBF789484B598
:102AA000826084BD84B5816084BD85B5826085BD4A
:102AB00085B5816085BD80916E00816080936E00D8
:102AC00010928100809181008260809381008091CA
:102AD000810081608093810080918000816080937B
:102AE00080008091B10084608093B1008091B0003B
:102AF00081608093B00080917A00846080937A0036
:102B000080917A00826080937A0080917A0081605F
:102B100080937A0080917A00806880937A00109286
:102B2000C100E0919B02F0919C0282E08083E091E1
:102B30009702F09198021082E0919902F0919A0226
:102B400080E180831092A302E0919F02F091A002A5
:102B500086E08083E0919D02F0919E0280818061F9
:102B60008083E0919D02F0919E0280818860808345
:102B7000E0919D02F0919E02808180688083E091C7
:102B80009D02F0919E0280818F7D808361E088E0CC
:102B90000E94070960E088E00E94D90861E082E0B5
:102BA0000E94070960E082E00E94D90862E083E0A9
:102BB0000E94070980912E0390912F0397FD2EC04C
:102BC00061E00E94070960E080912E030E94D9080D
:102BD00081E08093290360913003613541F12091B8
:102BE0003103309132036150E1F070E08FEF90E5F6
:102BF0000E94652CF90140912C0350912D03CF01C7
:102C0000821B930B8417950778F44081469FC0017F
:102C1000479F900D112490833196EDCF1092290398
:102C2000DACF70E060E0E6CF81E5809330030E9468
:102C30004F0D0E94E90F8FE093E00E94A00A89E007
:102C400093E00E94DD0F0E94B508892B09F031C185
:102C500086ED92E00E94DD0F81EA92E00E94DD0F96
:102C600082E792E00E94DD0F01E010E00E94E90F90
:102C70008FED91E00E94DD0F1092790210927802A0
:102C80001093800200937F022091290130912A0144
:102C900040912B01C857DD4F288339834A83C85898
:102CA000D2401E013394A101485F5F4FC557DD4FED
:102CB00059834883CB58D2408091070190910801F5
:102CC000A0910901B0910A01CE56DD4F8883998306
:102CD000AA83BB83C259D24020910B0130910C01D1
:102CE00040910D0150910E01CA56DD4F2883398362
:102CF0004A835B83C659D24080916D0190916E01E9
:102D0000A0916F01C357DD4F88839983AA83CD5863
:102D1000D240DE0111962D01FE01E85AFD4FCF5839
:102D2000DD4FF983E883C157D2409F012E5E3F4FAC
:102D3000C057DD4F39832883C059D240AE01425A73
:102D40005F4FCD58DD4F59834883C357D2400E940F
:102D50009B096B017C0100917F02109180028091A0
:102D60007B0290917C02A0917D02B0917E02A7012E
:102D70009601281B390B4A0B5B0BDA01C901C2977C
:102D8000A105B105D8F08090780290907902C092A8
:102D90007B02D0927C02E0927D02F0927E020E9441
:102DA000B50877247394892B09F0712CA72CB12CCA
:102DB0000A151B0509F08CC010927A020115110545
:102DC000F1F4A0907802B09079028BE892E00E9432
:102DD000110A892BA1F08BE892E00E94EF098F7D08
:102DE000833569F4AA94AB2851F084E09EE00E94F8
:102DF000DD0F81E090E090937902809378028091DA
:102E0000740290917502A0917602B0917702A701A9
:102E10009601281B390B4A0B5B0BDA01C901883C70
:102E20009105A105B10540F1A0907802B09079021A
:102E3000C0927402D0927502E0927602F09277020C
:102E40000E943C0FA114B10409F074C0882309F456
:102E500071C00E94E90F87ED9DE00130110511F06E
:102E600083EB9DE00E94DD0F0E94E90F81E090E07E
:102E70009093790280937802809178029091790200
:102E8000009709F077C081E0012B09F080E0809382
:102E9000000181E08093720280E090E0892B09F4C8
:102EA00056CF0E941D0A882309F433CF0E940000E8
:102EB00023CF8CE492E00E94DD0F8BE192E00E9430
:102EC000DD0F86EF91E00E94DD0F10E000E0CECE36
:102ED00080917A028F5F843018F480937A026ECFEB
:102EE00010927A02B0928002A0927F02C4010297EF
:102EF000029710F08928A9F40E944F0D10927902D0
:102F0000109278020E94E90F31E073120CC08BE935
:102F10009EE00E94DD0F8CE69EE00E94DD0F0E9485
:102F2000E90F85014BCF87E49EE00E94DD0F8DE124
:102F30009EE0F3CF32E0A31AB10842E0A416B10438
:102F400008F09ACF811198CF0E94E90F85E89DE0A3
:102F50000130110511F087E69DE00E94DD0F0E940F
:102F6000E90F0E944F0D1092790210927802109290
:102F7000730282CF10927202019709F08DCF809177
:102F800071020130110509F034C181110E94820ED5
:102F90000E94760EC857DD4F688179818A81C858B2
:102FA000D2400E941B0C7E015CE1E51A5EEFF50A3F
:102FB00088E0D7011D928A95E9F7C7010E94111395
:102FC000D82E8E0103551E4F80E2F80111928A958A
:102FD000E9F7C8010E94611181309105F9F001966D
:102FE00039F482E594E00E94DD0F0E94470D0CC089
:102FF00082E394E00E94DD0F609170017091710195
:10300000809172010E94540F0E94170CC958DD4F25
:103010001882C757D24083E090E036C0D11004C078
:103020008CE094E00E94DD0F41E0B801C7010E94EE
:10303000C50EF82E8CEF93E00E94A00AF7FE03C0A5
:103040008CED93E0D0CF8F2DFF0C990B0E948C104C
:10305000D80151968C918F7009F449C084EA93E0AD
:103060000E94DD0F60917001709171018091720179
:103070000E94540F0E94170CB1E0C958DD4FB8836D
:10308000C757D24082E090E0909379028093780213
:10309000C958DD4FB881C757D240B111FDCE87E482
:1030A0009DE00E94DD0FF8CE882349F10E94E90FD0
:1030B000C958DD4F3881C757D240332309F46DC05A
:1030C0008DE293E00E94DD0F0E94E90FEDE6F1E052
:1030D0006081718182810E94540F0E94170CC9582F
:1030E000DD4F4881C757D2404111CCCF94CFFF2448
:1030F000F394C0906801D0906901E0906A0182E980
:1031000093E00E94A00A6AE070E08F2D0E944510B3
:1031100080E2F801D10101900D928A95E1F7F10169
:103120008189807F8460818B48E260E2C1010E94D6
:10313000E00AD10155969C9155979F708295807FAA
:10314000892B55968C938E2DB6010E941B0C68E836
:1031500073E0C1010E944113C958DD4F8883C757EE
:10316000D240811103C00E94170C55CF0E94760EE9
:1031700080E2F20111928A95E9F7C2010E94BB1028
:10318000C958DD4F8883C757D240811114C082E7E8
:1031900093E00E94DD0F0E94E90F8CE193E00E9412
:1031A000DD0F0E94E90FC958DD4F1882C757D24082
:1031B000E0E7F1E08DCF8CE593E00E94A00A8A89D8
:1031C0006AE070E08F700E9445108A898F70F394D6
:1031D000F7E0FF1269CF21E0C958DD4F2883C757B8
:1031E000D240811163CFC958DD4F1882C757D240F2
:1031F0005DCF81110E94820E0E94760EC857DD4F6E
:10320000688179818A81C858D2400E941B0C8FE363
:10321000D1011D928A95E9F720E030EC49E754ECA2
:10322000D1019E962D933D934D935C93D197F101DF
:1032300022A733A744A755A78FEF818B8E010C5D82
:103240001D4F80E2D8011D928A95E9F7C8010E94BE
:103250006111009749F480E19DE00E94DD0F0E941A
:10326000170C10928A02D2CE019619F50E94E90F2E
:1032700085EE9CE00E94DD0F8DEA9CE00E94DD0F50
:1032800086E89CE00E94DD0F0E94E90F60917001CA
:1032900070917101809172010E94540F0E94170C6D
:1032A00010928A02E1E0C958DD4FE883C757D24047
:1032B000E9CEB1016E5E7F4FC8010E94970BB1014C
:1032C000C8010E94FA0AC10108960E941113D10197
:1032D00050968C93811104C08AE794E00E94DD0F20
:1032E00040E0B801C557DD4F88819981CB58D24065
:1032F0000E94C50EF101818B853009F007C361E0A2
:1033000088E00E94D90866E970E080E090E00E94C1
:10331000570D0E94B80781110AC060E088E00E9442
:10332000D9086BE971E0C1010E94123041C08CECF8
:103330000E942C0803E611E0C8010197F1F789E922
:103340000E942C086EE170E080E090E00E94570D32
:103350000E94B807882309F381E30E942C08C80162
:103360000197F1F70E94F107F82EC8010197F1F7D4
:103370000E94F107182F60E088E00E94D908FFEF53
:10338000FF12BEC21F3F69F21F92FF921F921F934E
:1033900082EA91E09F938F931F9288E08F933F92F0
:1033A0002F920E9419300FB6F894DEBF0FBECDBF2A
:1033B0000E94E90F84E79CE00E94A00AC1010E94DC
:1033C000CC1184E1CF58DD4FE881F981C157D2405B
:1033D000282F11922A95E9F7D10151969C919111CC
:1033E00017C3FE01EA58FE4F97E3DF01292F1D9214
:1033F0002A95E9F720E030EC49E754EC26A737A7F7
:1034000040AB51AB22AB33AB44AB55ABDE01A35564
:10341000BE4F01900D929A95E1F7AE014C5B5D4F66
:10342000C159DD4F59834883CF56D240DA011D92EE
:103430008A95E9F7CE56DD4F288139814A815B8133
:10344000C259D240CC5FDD4F288339834A835B83E6
:10345000C450D2408FEFD2011D928A95E9F72FEF29
:10346000A20164E0CE018C5F9D4F0E94240E892B47
:1034700009F089C2BDEAAB2EBB24B394AC0EBD1ECD
:10348000B4E0AB0EB11C6E01EBE0CE0ED11C7201AC
:10349000CB58DD4F1882C557D240CA58DD4F18822D
:1034A000C657D240612C10E0D70113966C91139748
:1034B00012968C91762F682F90E080E00E94BB2DB1
:1034C00020E030E04AE754E40E94132D9B01AC0158
:1034D000F50121933193419351935F01CB58DD4F17
:1034E0006881C557D240CA58DD4F7881C657D2404F
:1034F000862D912F0E94A22CCB58DD4F6883C55793
:10350000D240CA58DD4F7883C657D240682E192F53
:10351000F2E0EF0EF11CEC14FD0431F66F857889B2
:10352000A988BA88CB0101978E3F9F4F08F013C23C
:1035300090E080E00E94BB2D20E030E040E251E4CA
:103540000E94132D23E333E948E853E40E94A12CA1
:10355000D62EE72EF82E092FC50101978E3F9F4FDB
:1035600008F000C2B50190E080E00E94BB2D20E091
:1035700030E040E251E40E94132D23E333E948E8B0
:1035800053E40E94A12C4B015C01CA56DD4F888197
:103590009981AA81BB81C659D240CC51DE4F888324
:1035A0009983AA83BB83C45ED140C459DD4F18827E
:1035B00019821A82CC56D24023E0AE0144595D4FA5
:1035C00064E0CE018C519E4F0E94240E892B09F09D
:1035D000D1C1C459DD4F68817981CC56D240CB012D
:1035E00001978E3F9F4F08F0C5C190E080E00E9498
:1035F000BB2D9B01AC0160E070E080E097E40E948D
:10360000A12C20E030E048EC52E40E94132DC45875
:10361000DD4F688379838A839B83CC57D240EE89C0
:10362000FF89CE57DD4FF983E883C258D240288DF9
:10363000398DCC57DD4F39832883C458D2404E8D05
:103640005F8DC058DD4F59834883C058D24059A977
:10365000CA57DD4F5883C658D240FE01E85AFF4F83
:10366000A4E4B2E0AC0FBD1F1C9681918D93CD58A0
:10367000DD4F88819981C357D240E817F907A9F730
:10368000AA96AEADBFADAA97C658DD4FB983A88341
:10369000CA57D240B1E0C758DD4FB883C957D240AE
:1036A00075E0772EC758DD4FE881C957D240CC5B13
:1036B000DD4FE883C454D240C458DD4F288139819E
:1036C0004A815B81CC57D240CB5BDD4F2883398365
:1036D0004A835B83C554D240CE57DD4F4881598120
:1036E000C258D240C75BDD4F59834883C954D2408A
:1036F000CC57DD4F88819981C458D240C55BDD4FDE
:1037000099838883CB54D240C058DD4FA881B981BA
:10371000C058D240C35BDD4FB983A883CD54D2409B
:10372000CA57DD4FB881C658D240C15BDD4FB88360
:10373000CF54D240C658DD4FE881F981CA57D240F4
:10374000CA5ADD4FF983E883C655D24084E1FE01B1
:10375000EC5BFD4FDE01A85ABD4F01900D928A959A
:10376000E1F7C758DD4FF881C957D240C858DD4F3F
:10377000F883C857D2408D2D9E2DAF2DB02FF1016B
:1037800082A793A7A4A7B5A786A697A6A0AAB1AA21
:103790008189863009F03BC00E94790D0E94B807EC
:1037A000F82E00E0882371F083E691E00197F1F7AD
:1037B00082ED0E942C088BE891E00197F1F70E94BE
:1037C000F107082F0E94170C60E070EC89E794EC79
:1037D000FF20C1F0602F70E090E080E00E94BD2DDE
:1037E00020E030E040E252EC0E94722E20E03CEA01
:1037F00041E156E40E94A22C20E030E048EC52E483
:103800000E94132DF10162A773A784A795A78BE0EF
:10381000F1017F96DF011D928A95E9F7F101F188A8
:103820008BEF8F0D823008F011C626892E3108F4F7
:103830000AC62D51330BD1015796AD90BC905897C5
:1038400055964C9183E290E0841B910997FF02C04A
:1038500090E080E0820F931F8A9DB0018B9D700DD8
:103860009A9D700D112490E080E00E94BB2D20E015
:1038700030E040E05DE30E94722E6B017C01B501F7
:1038800090E080E00E94BB2D9B01AC01C701B60116
:103890000E94A22C6B017C01F10183898A3141F0E5
:1038A0008C3131F0883221F068E572E0823311F416
:1038B00068EE73E090E080E00E94BB2D9B01AC01BC
:1038C000C701B6010E94132D9B01AC0160E070E0BE
:1038D00080E890E40E94A12C6B017C0120E030E0A4
:1038E000A9010E940E2D87FF03C0C12CD12C7601A7
:1038F000D1015F96CD92DD92ED92FC92929772C6C5
:10390000F11042CD112309F40CCD3ECD80E1D2015E
:103910001D928A95E9F720E1A20162E08CE291E034
:103920000E94240E892B19F0F101108241CDF20181
:10393000D1019E01285F3F4F819190EE980F9F35F6
:1039400028F01C92D10117961C9232CD8D93E2176C
:10395000F30791F7F7CFD12CF0ECEF2EA9E7FA2E71
:1039600004ECFACD812CE0EC9E2EE9E7AE2EE4ECDF
:10397000BE2E0BCEC458DD4F188219821A821B82CC
:10398000CC57D2404CCEC658DD4F19821882CA5748
:10399000D240CA57DD4F1882C658D240C058DD4FBA
:1039A00019821882C058D240CC57DD4F1982188234
:1039B000C458D240CE57DD4F19821882C258D24027
:1039C000C458DD4F188219821A821B82CC57D2400C
:1039D000812C40EC942E49E7A42E44ECB42ED12C3B
:1039E00050ECE52E69E7F62E04ECC758DD4F18823F
:1039F000C957D240712CCB58DD4F1882C557D240E1
:103A0000CA58DD4F1882C657D240612C10E04ACE0A
:103A10009E01215C3E4FC159DD4F39832883CF562B
:103A2000D24027E3C159DD4FA881B981CF56D2409A
:103A30001D922A95E9F7953009F45AC0F10102A9BF
:103A4000963009F460C38BE1D2011D928A95E9F7A3
:103A5000063008F005E02BE1A20164E08CE391E080
:103A60000E94240E892B09F017C469817A8161159F
:103A7000710509F411C490E080E00E94BB2D20E0A4
:103A800030E04AE754E40E94132DCB58DD4F6883A1
:103A9000C557D240CA58DD4F7883C657D240682EEA
:103AA000192F7201FE01E15CFE4F6F01712CB2E033
:103AB000EB0EF11CE4E0CE0ED11C071509F420C476
:103AC000D70111966C9111978C91762F682F90E009
:103AD00080E00E94BB2D20E030E04AE754E40E94E1
:103AE000132DF60160837183828393837394DFCFF8
:103AF0006AE070E080E090E00E94570DD101D2961C
:103B0000CC90B5E0BC1510F435E0C32E1A821982B2
:103B100022E0A20161E081E391E00E94240E69812C
:103B20007A81CB01845C9940813D974008F016C1B1
:103B300090E080E00E94BB2D20E030E04AE754E4B2
:103B40000E94132DCB58DD4F6883C557D240CA5809
:103B5000DD4F7883C657D240682E192FCB01A62D92
:103B6000B12FCD5BDE4F88839983AA83BB83C35477
:103B7000D1400E94790D9E01215C3E4F5901EE24F7
:103B8000E394F12C1A82198222E0A20161E0EC1484
:103B900008F041C0C7018F5C9E4F0E94150E6981DD
:103BA0007A81CB01845F91408D3C904168F590E033
:103BB00080E00E94BB2D20E030E04AE754E40E9400
:103BC000132D9B01AC01D50118962D933D934D9378
:103BD0005C931B97CB58DD4F6881C557D240CA58BC
:103BE000DD4F7881C657D240862D912F0E94A22C9E
:103BF000CB58DD4F6883C557D240CA58DD4F788314
:103C0000C657D240682E192FBFEFEB1AFB0AE4E02B
:103C1000AE0EB11CB7CF80E391E00E94150E698112
:103C20007A81CB0101978E3F9F4F08F090C090E0C2
:103C300080E00E94BB2D20E030E048EC52E40E947E
:103C4000132DD62EE72EF82E092F0E94170C7C2C50
:103C500021E0C858DD4F2883C857D240812CE0ECC2
:103C60009E2EE9E7AE2EE4ECBE2ECB58DD4F8881C8
:103C7000C557D240CA58DD4F9881C657D240A62DAD
:103C8000B12FC15CDE4F88839983AA83BB83CF5356
:103C9000D140C559DE4F7882CB56D140C858DD4F50
:103CA0002881C857D240C459DE4F2883CC56D14012
:103CB0008D2D9E2DAF2DB02FC359DE4F8883998354
:103CC000AA83BB83CD56D140CF58DE4F88829982DC
:103CD000AA82BB82C157D140CB58DE4F2883C5573B
:103CE000D14087E3FE01E15CFE4FDE01A355BE4FEC
:103CF00001900D928A95E1F7C658DD4F198218821E
:103D0000CA57D240CA57DD4F1882C658D240C05851
:103D1000DD4F19821882C058D240CC57DD4F19822E
:103D20001882C458D240CE57DD4F19821882C2582B
:103D3000D240C458DD4F188219821A821B82CC5798
:103D4000D240C758DD4F1882C957D24014CDD12C6C
:103D500080ECE82E99E7F92E04EC77CFCC5FDD4FAD
:103D600019821882C450D24020E0AE014C5F5D4FF2
:103D70006FE271E081E00E94840F6EE170E080E00C
:103D800090E00E94570D22E0AE014C5F5D4F6EE265
:103D900071E080E00E94840FFE01E355FE4F84E154
:103DA000DF011D928A95E9F7BAE0C058DD4FB8836C
:103DB000C058D240D12C10ECE12E09E7F02E04ECD3
:103DC000CB58DD4F1882C557D240CA58DD4F1882F4
:103DD000C657D240612C10E0712CF20124E11192FF
:103DE0002A95E9F7CC51DE4F19821882C45ED14082
:103DF00022E0AE014C515E4F61E081E391E00E9410
:103E0000240ECC51DE4F68817981C45ED140CB0154
:103E1000845F91408D3C904108F0A8C090E080E024
:103E20000E94BB2D20E030E04AE754E40E94132DAD
:103E300069837A838B839C8320E030E0A9010E9410
:103E4000A22CC858DD4F6883C857D240C758DD4FF1
:103E50007883C957D240C658DD4F8883CA57D240AD
:103E6000C458DD4F9883CC57D24041E0C958DD4F4C
:103E70004883C757D2400E94790DCE010196CE5794
:103E8000DD4F99838883C258D2404C01AA24A39461
:103E9000B12CCC51DE4F19821882C45ED14022E091
:103EA000AE014C515E4F61E0AC1408F079C0C50121
:103EB0008F5C9E4F0E94150ECC51DE4F6881798138
:103EC000C45ED140CB01845F91408D3C904108F0AD
:103ED00046C090E080E00E94BB2D20E030E04AE741
:103EE00054E40E94132D9B01AC01F401248335831B
:103EF00046835783C858DD4F6881C857D240C7589A
:103F0000DD4F7881C957D240C658DD4F8881CA57E6
:103F1000D240C458DD4F9881CC57D2400E94A22C89
:103F2000C858DD4F6883C857D240C758DD4F7883E3
:103F3000C957D240C658DD4F8883CA57D240C458AB
:103F4000DD4F9883CC57D240C958DD4FF881C75711
:103F5000D240FF5FC958DD4FF883C757D2402FEFDB
:103F6000A21AB20A34E0830E911C93CFC858DD4FD9
:103F70001882C857D240C758DD4F1882C957D2405F
:103F8000C658DD4F1882CA57D240C458DD4F188238
:103F9000CC57D240C958DD4F1882C757D2406BCF9B
:103FA00080E391E00E94150E0E94170CCC51DE4F69
:103FB00068817981C45ED140CB0101978E3F9F4FCC
:103FC00070F590E080E00E94BB2D20E030E048ECEE
:103FD00052E40E94132DC958DD4F5881C757D24073
:103FE000571508F448C0FE01E355FE4F20E0C21605
:103FF000D9F0CE57DD4FA881B981C258D2408D90FB
:104000009D90AD90BD90CE57DD4FB983A883C25827
:10401000D24081929192A192B1922F5FE8CF60E05D
:1040200070EC89E794ECD7CFD62EE72EF82E092F27
:10403000C858DD4FB881C857D240CB58DD4FB88340
:10404000C557D240C758DD4FE881C957D240CA583A
:10405000DD4FE883C657D240C658DD4F6880CA5747
:10406000D240C458DD4F1881CC57D240C958DD4FDB
:104070007880C757D240C958DD4FF881C757D24022
:10408000CF1669F0C058DD4F2881C058D24021506A
:10409000C058DD4F2883C058D24021119ECE7720D2
:1040A00099F0DE01A355BE4FFE01ED5BFE4F712C72
:1040B000C71411F14D915D916D917D914193519393
:1040C000619371937394F4CFD12CF0ECEF2EA9E7A8
:1040D000FA2E04ECC858DD4F1882C857D240CB588E
:1040E000DD4F1882C557D240CA58DD4F1882C657D7
:1040F000D240612C10E0B2CD31E0C858DD4F38839A
:10410000C857D240ABCDC355DE4F1882CD5AD140EF
:10411000D2011D928A95E9F70E94790D20E0AE0147
:1041200043555E4F62E086E391E00E94150E6AE01F
:1041300070E080E090E00E94570D0E94B807782E52
:104140008823F9F083E691E00197F1F784ED0E946E
:104150002C088BE891E00197F1F752017E01B5E15F
:10416000EB0EF11C73E6C72EDD24D3940E94F107F9
:10417000F50181935F01C6010197F1F7EE16FF0685
:10418000A9F70E94170C772009F460C00B3008F0E3
:104190000AE072019E01215C3E4F6901712CCB58EF
:1041A000DD4F1882C557D240CA58DD4F1882C65716
:1041B000D240612C10E034E0C30ED11C071509F485
:1041C00064C0D70111966C9111978C91762F682F4E
:1041D00090E080E00E94BB2D20E030E040E251E41E
:1041E0000E94132D9B01AC0160E070E88BEB95E41D
:1041F0000E94A12C20E030E04AE754E40E94132DF5
:104200009B01AC01F6012083318342835383CB5859
:10421000DD4F6881C557D240CA58DD4F7881C657F7
:10422000D240862D912F0E94A22CCB58DD4F68835F
:10423000C557D240CA58DD4F7883C657D240682E42
:10424000192F7394F2E0EF0EF11CB5CFC858DD4F73
:104250001882C857D240CB58DD4F1882C557D2407C
:10426000CA58DD4F1882C657D240612C10E0812C0D
:1042700040EC942E49E7A42E44ECB42ED12C50EC03
:10428000E52E69E7F62E04ECF0CC21E0C858DD4FAE
:104290002883C857D240EBCF7E01F3E5EF1AFEEF3B
:1042A000FF0A8DE0D7011D928A95E9F72DE0A7015D
:1042B00064E088E391E00E94240E892B09F46BC02E
:1042C000812C10EC912E19E7A12E14ECB12ED12CDB
:1042D00000ECE02E89E7F82E04ECC858DD4F188278
:1042E000C857D240712CCB58DD4F1882C557D240E9
:1042F000CA58DD4F1882C657D240612C10E0B5CCA9
:104300006F857889A988BA88CB0101978E3F9F4F26
:1043100098F590E080E00E94BB2D20E030E040E284
:1043200051E40E94132D23E333E948E853E40E944B
:10433000A12CD62EE72EF82E092FC50101978E3F0E
:104340009F4F08F5B50190E080E00E94BB2D20E072
:1043500030E040E251E40E94132D23E333E948E8C2
:1043600053E40E94A12C4B015C0131E0C858DD4FA1
:104370003883C857D24079CCD12C20ECE22E39E7D3
:10438000F32E04ECDACF812C90EC992E99E7A92E2C
:1043900094ECB92EEACFD7011C968C911C978630ED
:1043A00009F08ECF6D917C9190E080E00E94BB2D52
:1043B00020E030E04AE754E40E94132DCB58DD4F53
:1043C0006883C557D240CA58DD4F7883C657D2405C
:1043D000682E192FFE01E15CFE4F6F01712CF2E097
:1043E000EF0EF11C24E0C20ED11C0715C1F0D7015D
:1043F00011966C9111978C91762F682F90E080E048
:104400000E94BB2D20E030E04AE754E40E94132DC7
:10441000F60160837183828393837394E0CF812C50
:10442000F0EC9F2EF9E7AF2EF4ECBF2ED12CA0ECD0
:10443000EA2EB9E7FB2E04ECF1E0C858DD4FF88313
:10444000C857D24012CC30E020E0F5C98F2D0E9431
:10445000790F882309F434C1F101038919821A8282
:104460001B82F2E081E0FF1621F023E082E0F212ED
:1044700080E034E0839FC001112443E0B201805CFE
:104480009E4F0E94330E69817A81811102C070E0D3
:1044900060E00023A1F190E080E00E94BB2D6B0161
:1044A0007C01602F70E090E080E00E94BD2D9B01B8
:1044B000AC01C701B6010E94132D6B017C0120E005
:1044C00030E040EA52E40E946D2E18160CF49DC0B4
:1044D00020E030E040E251E4C701B6010E94132D14
:1044E00020E030E040EA50E40E94A12C6B017C0106
:1044F00020E030E0A9010E940E2D87FF03C0C12CEF
:10450000D12C7601D1015F96CD92DD92ED92FC9295
:10451000929751960C91802F0E94790F81117CC047
:1045200080E0F10185A38189823009F48DC0833058
:1045300009F4A9C08111BDC088E0D2011D928A95FD
:10454000E9F748E0B20180E691E00E94330E88234B
:1045500009F4AFC02F81B0E12B9FA0011124407F4F
:1045600053709E81292F30E064E0359527956A9538
:10457000E1F7242B352B8D8190E0982F8827882711
:1045800093704C81842B820F931F498142954695ED
:10459000469543702A81E4E02E9F90011124242B3C
:1045A000820F931FD10194969C938E93939751966B
:1045B0008C91811181C085E0F20111928A95E9F711
:1045C00045E0B20184E691E00E94330E882309F4AD
:1045D00073C089819A81AB81BC81F10186A397A3C5
:1045E000A0A7B1A70E943C0FC958DD4F8883C757C9
:1045F000D240811183C08DE49CE00E94DD0F0E94B7
:10460000170C10928A020C940B18C12CD12CE0E8E4
:10461000EE2EE0E4FE2E76CF1A82198281E002307F
:1046200021F082E0033009F080E0B4E08B9FC0010C
:10463000112442E0B201845B9E4F0E94330E882316
:1046400009F46ECF89816DCF88E0D2011D928A95E1
:10465000E9F748E0B2018CE591E00E94330E88232F
:1046600041F129818B81E22FE80FFF27FF1F2C8169
:104670002E0F3F2F311D8E81280F311D8F81820F0C
:10468000932F911D8FCF86E0D2011D928A95E9F775
:1046900046E0B20188E591E00E94330E882349F09C
:1046A00089819B81E82FE90FFF27FF1F9F018C81E4
:1046B000E6CF90E080E076CF80E090E0DC018DCF27
:1046C000C55CDD4F6881CB53D2406F7070E075954B
:1046D0006795C12CD12C40E8E42E40E4F42E6330E1
:1046E00008F406C9673009F400C962507109072E41
:1046F000000C880B990B0E94BD2DE6C8C858DD4FF1
:10470000B881C857D240C957DD4FB883C758D24087
:10471000B11104C085E19CE00E94DD0F0E94E90F09
:1047200085E59AE00E94A00AC1010E94CC1183E4B1
:104730009AE00E94A00AF1018089882309F4EFC35E
:104740007101F8E0EF0EF11C00E0D7018D917D01C1
:10475000803118F480E30E94BB0A60E170E0F70149
:10476000319780810E943E10073019F080E20E944C
:10477000BB0A0F5F083049F70E94D90FF10180850D
:104780001F928F9381851F928F9382851F928F93A3
:104790008DEA91E09F938F931F928DE08F935F92AC
:1047A0004F920E94193081E39AE00E94A00AC20150
:1047B0000E94CC110FB6F894DEBF0FBECDBF81E1D1
:1047C0009AE00E94A00AD10151968C91082E000C0B
:1047D000990B0E948C108FEF99E00E94A00A6AE06A
:1047E00070E0F10182890E943E108BEF99E00E94F7
:1047F000A00AD10152968C918D3008F095C38DEEB0
:1048000099E00E94A00A0E94ED0F8EEB99E00E94B1
:10481000A00AF10163A974A985A996A941E050E015
:104820000E94C1128AEB99E00E94DD0FC758DD4F4C
:10483000F881C957D240FF23D1F188EA99E00E945C
:10484000A00ACC57DD4F28813981C458D240B90124
:1048500090E080E00E94BB2D20E030E04AE754E485
:104860000E94132D43E050E00E94C11284EA99E0B7
:104870000E94DD0F82E999E00E94A00AC058DD4F36
:1048800048815981C058D240BA0190E080E00E942E
:10489000BB2D20E030E04AE754E40E94132D43E0B2
:1048A00050E00E94C1128EE899E00E94DD0F0E9444
:1048B000E90FD10157968D919C91892B71F08CE76E
:1048C00099E00E94A00AF1016789708D90E080E074
:1048D0004AE00E94FA0F0E94D90F20E030E0A901BF
:1048E000D1015F966D917D918D919C9192970E94DF
:1048F0006D2E1816F4F58AE699E00E94A00AF101DF
:10490000678D70A181A192A142E050E00E94C11286
:1049100082E699E00E94A00AD1015F96CD90DD90D9
:10492000ED90FC90929720E030E0A901C701B6011C
:104930000E946D2E20E030E040E05FE387FDFCC286
:10494000C701B6010E94A22C0E94852D7B01D12CAB
:10495000C12C83E2CE14DF040CF08DE20E94BB0A6E
:10496000BFEFCB1ADB0AE4E0CE16D10491F70E9428
:10497000ED0FD10151968C910E94790F882309F493
:1049800044C080E599E00E94A00A6AE070E0F1016D
:1049900085A10E9445108EE399E00E94A00AD101F2
:1049A00095966C919597662339F05796ED90FC900B
:1049B000E114F10409F0C5C288E399E00E94DD0F1B
:1049C00083E299E00E94A00AF10163A174A190E042
:1049D00080E04AE00E94FA0F0E94D90F81E199E03D
:1049E0000E94A00AD10193966D917C9194976115D4
:1049F000710539F05796ED90FC90E114F10409F03F
:104A0000C5C28BE099E00E94DD0FF10181898550DC
:104A1000823008F03FC086EF98E00E94A00AD101E2
:104A200055966C9170E090E080E00E94BD2D20E0F2
:104A300030E040EA50EC0E94722E20E030E040E28C
:104A400053E40E94A22C41E050E00E94C11283EF87
:104A500098E00E94DD0F81EE98E00E94A00AF1012B
:104A6000668970E090E080E00E94BD2D20E030E09B
:104A700040EA50E40E94722E20E030E040E253E42D
:104A80000E94A12C41E050E00E94C1128EED98E0FE
:104A90000E94DD0F20E030EC49E754ECD1019A96FA
:104AA0006D917D918D919C919D970E940E2D8823F3
:104AB00089F08CEC98E00E94A00AF10162A573A530
:104AC00084A595A541E050E00E94C11289EC98E0D0
:104AD0000E94DD0F20E030EC49E754ECD1019E96B6
:104AE0006D917D918D919C91D1970E940E2D88237F
:104AF00089F087EB98E00E94A00AF10166A577A5EE
:104B000080A991A941E050E00E94C11284EB98E095
:104B10000E94DD0FC758DD4FF881C957D240FF23EF
:104B200009F4BAC020E030E040E451E4D101D3966A
:104B30006D917D918D919C91D6970E946D2E87FDF0
:104B400049C260E070E088E493E4C458DD4F2881F6
:104B500039814A815B81CC57D2400E94A22C6B01E3
:104B60007C0182EA98E00E94A00A42E050E0C7017E
:104B7000B6010E94C1128FE998E00E94DD0F8DE816
:104B800098E00E94A00ACE57DD4FE881F981C25813
:104B9000D240BF0190E080E00E94BB2D20E030E0D9
:104BA00040E85BE30E94722E6B017C0141E050E023
:104BB0000E94C1128AE898E00E94DD0FC058DD4FC4
:104BC00028813981C058D240B90190E080E00E942C
:104BD000BB2D20E030E04AE754E40E94132D4B0146
:104BE0005C0120E030E048EC52E4C701B6010E94CD
:104BF000132D9B01AC01C501B4010E94722E6B0103
:104C00007C0188E798E00E94A00A43E050E0C701D9
:104C1000B6010E94C11284E798E00E94DD0FC658D9
:104C2000DD4F48815981CA57D2403FE8C32EDD2469
:104C3000D394F12CE12C403689E05807A8F426E003
:104C400030E0CA01B9010E94652C6B018FE599E043
:104C5000C658DD4FA881B981CA57D2408A1B9B0B29
:104C6000B9010E94652C7B0182E698E00E94A00AAF
:104C7000B60190E080E04AE00E94FA0F89E598E0F2
:104C80000E94A00AB70190E080E04AE00E94FA0F7B
:104C90008CE498E00E94DD0F0E94E90F8AE398E01F
:104CA0000E94A00ACB58DD4F6881C557D240CA5830
:104CB000DD4F7881C657D240862D912F0E94B412C5
:104CC000C858DD4FB881C857D240BB2311F07110CE
:104CD00085C186E298E00E94DD0FC758DD4FF8815C
:104CE000C957D240F11157C0D10151968C910E9401
:104CF000790F882309F44FC0F10166A177A180A53F
:104D000091A5611571058105910509F444C01389C8
:104D1000112309F440C00E94BB2D6B017C01612F5F
:104D200070E090E080E00E94BD2D9B01AC01C701C6
:104D3000B6010E94132D20E030E044E355E40E94C8
:104D4000132D6B017C0120E030E040E251E40E9431
:104D50000E2D11E087FD10C020E030E040E251E46C
:104D6000C701B6010E94132D0E94852D6830710580
:104D700014F067E070E0162F0E94E90F82E098E0DF
:104D80000E94A00A6AE070E0812F0E943E108DEF21
:104D900097E00E94DD0F0E94E90F8BEE97E00E94E2
:104DA000A00AD101D7968C91882309F4E7C182ED3E
:104DB00097E00E94DD0F89ED97E00E94A00AF101C3
:104DC000818D882309F4DDC183EB97E00E94DD0F1C
:104DD00087EB97E00E94A00AD101D8968C91882396
:104DE00009F4D2C18BE997E00E94DD0F8EE997E0CC
:104DF0000E94A00AF10181AD882309F4C8C182E8AC
:104E000097E00E94DD0F85E897E00E94A00AD1019B
:104E1000DA968C91882309F4BDC189E697E00E9457
:104E2000DD0F8CE697E00E94A00AF10183AD882394
:104E300009F4B3C180E597E00E94DD0F83E597E0B8
:104E40000E94A00AD101DC968C91882309F4A8C1A4
:104E500089E497E00E94DD0FCB5DDD4F8881C5526C
:104E6000D240863209F09FC182E297E00E94DD0FB6
:104E700062E2CE018C5D9D4F0E94A70924E931E0DA
:104E8000882311F027E931E01F928F933F932F93EE
:104E900081EF91E09F938F931F9210E41F935F9295
:104EA0004F920E941930C2010E94CC11C95CDD4FA3
:104EB0008881C753D2401F928F938AE092E09F93DC
:104EC0008F931F921F935F924F920E941930C201DD
:104ED0000E94CC1189EC96E00E94A00AD101549660
:104EE0001C910FB6F894DEBF0FBECDBF103108F095
:104EF00030C3E12FF0E0E158F84D0C949B2CF328DF
:104F0000622AA92A652A7B2A7E2AA92A812AA92A15
:104F1000A92AA92AA92AA92AA92AA92AA62A83E26A
:104F20009AE00E94DD0F4BCC8E3118F48FED99E0A2
:104F300068CC80ED99E065CCC701B6010E94A12C38
:104F400003CD70E090E080E00E94BD2D20E030E0D5
:104F500048EC52E40E94722E4B015C01B70190E0D4
:104F600080E00E94BB2D9B01AC01C501B4010E94F1
:104F7000132D20E030E040E850E40E94A22C41E0F4
:104F800050E00E94C11285E399E018CD90E080E0E6
:104F90000E94BB2D20E030E048EC52E40E94722ECB
:104FA0004B015C01B70190E080E00E94BB2D9B01AA
:104FB000AC01C501B4010E94132D20E030E040E8AF
:104FC00050E40E94A22C41E050E00E94C11288E00F
:104FD00099E019CD60E070E0CB01B7CDCF54DE4F42
:104FE0008880C15BD140CE54DE4F9880C25BD140F7
:104FF000CD54DE4FA880C35BD140CC54DE4FB88087
:10500000C45BD140EDEAF1E0EC0FFD1F3496C058CF
:10501000DD4FF983E883C058D240CB58DD4F8882FA
:10502000C557D240CA58DD4F9882C657D240C6589D
:10503000DD4FA882CA57D240C458DD4FB882CC5742
:10504000D24010E000E026E1622E071508F077C09C
:105050000F5F1F4F1F930F932EEB31E03F932F9362
:105060001F926F925F924F920E941930C2010E946C
:10507000CC0FC058DD4FA881B981C058D240CD9027
:10508000DD90ED90FD90C058DD4FB983A883C058E6
:10509000D240C701B6010E94B4120FB6F894DEBF29
:1050A0000FBECDBF9401A501C701B6010E946D2EB0
:1050B000181614F446015701CB58DD4F2881C55707
:1050C000D240CA58DD4F3881C657D240C658DD4F4E
:1050D0004881CA57D240C458DD4F5881CC57D2407E
:1050E000C701B6010E940E2D87FD14C0CB58DD4FBD
:1050F000C880C557D240CA58DD4FD880C657D24065
:10510000C658DD4FE880CA57D240C458DD4FF880FA
:10511000CC57D240CB58DD4FC882C557D240CA5871
:10512000DD4FD882C657D240C658DD4FE882CA57F5
:10513000D240C458DD4FF882CC57D24086CF84E1AC
:1051400098E00E94A00ACB58DD4F2881C557D24075
:10515000CA58DD4F3881C657D240C658DD4F488106
:10516000CA57D240C458DD4F5881CC57D240B40101
:10517000C5010E94A12C0E94B412AFCD89EC97E02A
:1051800018CE80EB97E022CE87E997E02DCE8EE710
:1051900097E037CE85E697E042CE8CE497E04CCEA0
:1051A00085E497E057CE863319F48CEF96E05ECE17
:1051B000813319F48BED96E059CE1F928F9381EDD8
:1051C00091E09F938F931F9280E48F935F924F9211
:1051D0000E941930C2010E94CC110FB6F894DEBFB4
:1051E0000FBECDBF45CE86E496E00E94DD0FC758C6
:1051F000DD4FF881C957D240FF2399F185EB96E046
:105200000E94A00A62E070E0CA57DD4F8881C6584C
:10521000D2400E94451083EA96E00E94A00A08E569
:1052200012E00C0F1D1F045F1F4FD801FD908D0170
:10523000BFE0BF1518F080E30E94BB0A60E170E098
:105240008F2D0E943E1080E20E94BB0AC057DD4FA6
:10525000E881F981C059D240E017F10731F70E9487
:10526000D90FD101D7968C91D7978823C9F1DD96B4
:105270008D919C91892BA1F182E996E00E94DD0F2E
:10528000F10185AD81FF04C080E796E00E94DD0F4B
:10529000D101DD968C9183FF04C08DE496E00E94DD
:1052A000DD0FF10185AD86FF1BC062E2CE018C5D92
:1052B0009D4F0E94A7091F928F9382E292E09F93D5
:1052C0008F931F9280E38F935F924F920E941930C9
:1052D000C2010E94CC110FB6F894DEBF0FBECDBF45
:1052E0000E94E90F70E060E0CE018C5D9D4F0E944E
:1052F00051100E94E90FC858DD4F3881C857D2407D
:10530000332309F4A3C041E0471508F02EC1CF5460
:10531000DE4F8880C15BD140CE54DE4F9880C25BA7
:10532000D140CD54DE4FA880C35BD140CC54DE4F7A
:10533000B880C45BD1400DEA11E00C0F1D1F085F5F
:105340001F4FCA58DD4F8882C657D240C858DD4F1C
:105350009882C857D240C758DD4FA882C957D2405B
:105360006B2C51E0CB58DD4F5883C557D240D80144
:10537000CD90DD90ED90FD908D019401A501C701C8
:10538000B6010E946D2E181614F446015701CA5832
:10539000DD4F2881C657D240C858DD4F3881C857E5
:1053A000D240C758DD4F4881C957D240562DC7015A
:1053B000B6010E940E2D87FF10C0CA58DD4FC8826B
:1053C000C657D240C858DD4FD882C857D240C758B8
:1053D000DD4FE882C957D2406F2CCB58DD4FB881E2
:1053E000C557D240BF5FCB58DD4FB883C557D240B9
:1053F000B711BDCFCA58DD4F2881C657D240C85813
:10540000DD4F3881C857D240C758DD4F4881C95752
:10541000D240562DB401C5010E94A12C6B017C0124
:105420002AE939E949E95EE30E946D2E87FD9DC0B6
:105430008CEF9BE00E94A00A43E050E0C701B60158
:105440000E94C11280EE9BE00E94DD0FF10187A94E
:10545000811191C084EC9BE00E94DD0F60916D0191
:1054600070916E0180916F010E94540FD10151968D
:105470008C910E94790F81110E94760E0E94E90F93
:1054800086ED9BE00E94DD0FC957DD4FE881C758CC
:10549000D240E0937302D101D7968C91EDE6F1E012
:1054A000882319F080E5E0E7F1E0918180937002B4
:1054B00090936F0210926E020E94170C10928A0253
:1054C0000C94421883E296E090CE86E196E00E942A
:1054D000A00AC45DDD4F8881CC52D24086FF03C054
:1054E00089EF95E082CE81FF03C081ED95E07DCE0E
:1054F00082EC95E07ACE85E995E077CE81E895E07B
:1055000074CE84E795E00E94A00AC15DDD4F8881DA
:10551000CF52D24087FF03C084E595E066CECF5CD2
:10552000DD4F9881C153D24097FF03C082E495E0DC
:105530005CCE943018F089E295E057CE833018F0B5
:105540008BE095E052CE81EF94E04FCE88EC94E072
:105550004CCE86EB94E00E94A00A6AE070E0812FB6
:105560000E943E100E94ED0F42CEC957DD4F1882B7
:10557000C758D2406BCF81890E94790F81112BC00F
:1055800085EA9BE00E94A00AD1015196CC900C2C98
:10559000000CDD08EE08FF084AE0C701B601F7FE7F
:1055A0000BC08DE20E94BB0A66277727CB016C19DE
:1055B0007D098E099F094AE00E94FA0F89E99BE064
:1055C0000E94DD0F609170017091710180917201F4
:1055D0000E94540F53CF89E89BE00E94DD0F0E9488
:1055E000470D8FE69BE00E94DD0F0E94470D0E9451
:1055F000760E0E94A10E8E010C5F1D4F892B09F4BF
:1056000075C0CC24C39483E29BE00E94A00A6AE0A8
:1056100070E08C2D0E943E1084E19BE00E94DD0F23
:10562000609168017091690180916A010E941B0C70
:1056300080E2FE01EC5DFD4FD80101900D928A954C
:10564000E1F7F8018189807F818B4FE060E0C8013C
:105650000E94E00AD80154969C9154979F708295BD
:10566000807F892B54968C9348E260E2C8010E94A7
:10567000E00AF80195899F708295807F892B858B40
:1056800067E87AE0C8010E94511064E87AE0C80136
:105690000E9441138823B1F00E94760E7E01FCE146
:1056A000EF1AFEEFFF0A80E2D7011D928A95E9F713
:1056B000C7010E94BB10D82E81116CC087E69AE00A
:1056C0000E94DD0F8EEC9AE0E0C0DD2009F49BCF54
:1056D0008FEA9AE00E94DD0FC357DD4F6881798120
:1056E0008A81CD58D2400E94540FC6CE88E0F8017E
:1056F00011928A95E9F7AE014C515E4F89E0DA01CB
:105700001D928A95E9F729E0B8018BE691E00E94A5
:10571000C3120E94820E0E94760E80E2F201119264
:105720008A95E9F7C2010E94BB10D82E882309F49C
:1057300068CF80E2F201DE01AC5DBD4F01900D92B9
:105740008A95E1F7B1016E5E7F4FCE018C5D9D4F72
:105750000E94970BB101CE018C5D9D4F0E94FA0A09
:10576000D101D7968C91811110C088E59BE00E94F1
:10577000DD0FCC24C394C394B7E0CB12A6CF89E944
:105780009AE0DD2009F41CCFA3CF80E39BE00E94C8
:10579000DD0F37CF4FE060E0C7010E94E00A782EAE
:1057A000F701948892948FE0982248E260E2C70162
:1057B0000E94E00A882ED7015596AC905597A29486
:1057C0009FE0A92251968C918F70B82E44E951E048
:1057D00011F047E951E024E931E08A1411F027E99A
:1057E00031E084E991E0791411F087E991E01F92AA
:1057F000BF925F934F933F932F939F938F9382E436
:1058000092E09F938F931F9280E38F935F924F92CA
:105810000E941930C2010E94CC110FB6F894DEBF6D
:105820000FBECDBF791025C08A1023C0B11021C092
:1058300080E2F701DE01AC5DBD4F01900D928A95CB
:10584000E1F7B1016E5E7F4FCE018C5D9D4F0E94EE
:10585000970BB101CE018C5D9D4F0E94FA0AD101D8
:10586000D7968C9181110FC085E09BE00E94DD0FDF
:1058700082CF80E2F701DE01AC5DBD4F01900D9259
:105880008A95E1F71FCF88EE9AE00E94DD0FD12CB8
:1058900072CF80913103909132030E94802F8091CA
:1058A0002E0390912F0397FD03C060E00C9407092D
:1058B0000895991B79E004C0991F961708F0961B6C
:1058C000881F7A95C9F780950895AA1BBB1B51E1E3
:1058D00007C0AA1FBB1FA617B70710F0A61BB70B60
:1058E000881F991F5A95A9F780959095BC01CD0105
:1058F0000895A1E21A2EAA1BBB1BFD010DC0AA1F11
:10590000BB1FEE1FFF1FA217B307E407F50720F028
:10591000A21BB30BE40BF50B661F771F881F991FA3
:105920001A9469F760957095809590959B01AC01EC
:10593000BD01CF010895EE0FFF1F0590F491E02DFA
:1059400009945058BB27AA270E94B92C0C94332ED7
:105950000E94252E38F00E942C2E20F039F49F3F13
:1059600019F426F40C94222E0EF4E095E7FB0C9427
:105970001C2EE92F0E94442E58F3BA1762077307B2
:105980008407950720F079F4A6F50C94662E0EF4A2
:10599000E0950B2EBA2FA02D0B01B90190010C013F
:1059A000CA01A0011124FF27591B99F0593F50F457
:1059B000503E68F11A16F040A22F232F342F4427AF
:1059C000585FF3CF469537952795A795F0405395A7
:1059D000C9F77EF41F16BA0B620B730B840BBAF077
:1059E0009150A1F0FF0FBB1F661F771F881FC2F7E2
:1059F0000EC0BA0F621F731F841F48F487957795F6
:105A00006795B795F7959E3F08F0B0CF9395880FAF
:105A100008F09927EE0F9795879508950E94F82D25
:105A200008F481E008950E94272D0C94332E0E94E3
:105A30002C2E58F00E94252E40F029F45F3F29F0CB
:105A40000C941C2E51110C94672E0C94222E0E9443
:105A5000442E68F39923B1F3552391F3951B550B0D
:105A6000BB27AA2762177307840738F09F5F5F4F31
:105A7000220F331F441FAA1FA9F335D00E2E3AF070
:105A8000E0E832D091505040E695001CCAF72BD088
:105A9000FE2F29D0660F771F881FBB1F26173707D9
:105AA0004807AB07B0E809F0BB0B802DBF01FF270B
:105AB00093585F4F3AF09E3F510578F00C941C2E9E
:105AC0000C94672E5F3FE4F3983ED4F38695779568
:105AD0006795B795F7959F5FC9F7880F911D9695C4
