:100000000C94CA060C94F2060C94F2060C94F206B8
:100010000C94F2060C94F2060C94F2060C94F20680
:100020000C94F2060C94F2060C94F2060C94F20670
:100030000C94F2060C94F2060C94F2060C94F20660
:100040000C9425130C94F2060C9495130C946F13D6
:100050000C94F2060C94F2060C94F2060C94F20640
:100060000C94F2060C94F2062D2D2D2D2D2D2D2DF8
:100070002D2D2D2D2D2D2D2D2D2D2D2D2D2D2D2DB0
:100080002D2D2D2D2D2D2D2D2D2D2D2D2D2D2D2DA0
:100090002D2D2D2D2D2D2D2D2D002020202020200B
:1000A0002020202020202020202020004672616D6A
:1000B00065202020202020202020203A2000206DB4
:1000C0007329002054494D454F55542028002E00D7
:1000D000206D732900204F4B20280020205B4E6F9D
:1000E00020726573706F6E73655D202D2077616976
:1000F00074696E6700206D7329002054494D454F87
:1001000055542028002E00206D732900202800203F
:100110002057616974696E67005374696C6C206E56
:100120006F2070726573656E63652E2041626F7219
:1001300074696E672077726974652E00202053748D
:100140006F72653A206E6F2070726573656E6365BD
:100150002E00202057726974653A206E6F207072ED
:100160006573656E63652E00202041726D3A206EC6
:100170006F2070726573656E63652E00202041727A
:100180006D20616C72656164792069737375656453
:10019000202D20706F7765722D6379636C652072F6
:1001A000657175697265642E004E6F20707265739B
:1001B000656E636520656E746572696E672074652F
:1001C00073746D6F64652E002E0020205761697472
:1001D000696E6700206D732900204F4B202800575F
:1001E000616974696E6720666F72206261747465FC
:1001F00072792E2E2E002020427269646765204796
:1002000050494F302D4750494F3120666F72204F73
:100210006D656761206C6F636B2E0020202773274C
:10022000203D2072657363616E207C206175746F60
:100230002D6465746563747320636F6E6E6563749B
:100240002F646973636F6E6E6563740020204D6167
:100250006B697461204D6F6E69746F72202D20532D
:1002600063616E202F20556E6C6F636B204D6F6441
:100270006500202052656D6F766520627269646743
:100280006520746F2073776974636820746F2073BE
:1002900063616E2F756E6C6F636B206D6F64652E7E
:1002A0000020204750494F302D4750494F312062A0
:1002B000726964676564202D3E204F4D454741209B
:1002C0004C4F434B204D4F444520286E7962626C61
:1002D00065203334290020204D616B697461204F03
:1002E0004D454741204C4F434B205574696C697410
:1002F00079202D2054797065732030202F203220F2
:100300002F2033206F6E6C7900312E352E30002077
:10031000204669726D7761726520760020205B4C03
:100320006F636B5D204641494C45442E0020205BA5
:100330004C6F636B5D204F4D454741204C4F434B05
:1003400045442E204E7962626C65203334207365FB
:1003500074206E6F6E2D7A65726F2E0020205B4CBC
:100360006F636B5D204E7962626C65203334203D93
:10037000200020205B4C6F636B5D204E6F20726508
:1003800073706F6E73652E0020205B4C6F636B5D26
:10039000200020205B4C6F636B5D20417474656DA1
:1003A0007074200020205B4C6F636B5D2042617491
:1003B0007465727920616C7265616479204F4D4576
:1003C0004741204C4F434B454420286E7962626C74
:1003D0006520333420213D2030292E00756E737541
:1003E00070706F727465642028352C20362C206F55
:1003F0007220756E6B6E6F776E292E0020205B4C1D
:100400006F636B5D20547970653A200020205B4C4F
:100410006F636B5D205741524E494E473A20524F11
:100420004D2049442072656164206661696C656491
:100430002E0020205B4C6F636B5D204552524F5263
:100440003A204E6F2076616C6964206672616D653A
:100450002E0020205B4C6F636B5D205072652D7405
:100460007970652D302048433038202D20756E730B
:100470007570706F727465642E005741524E494E0C
:10048000473A20524F4D20494420726561642066EE
:1004900061696C65643B207573696E672066616C89
:1004A0006C6261636B207479706520646574656348
:1004B00074696F6E2E00424144202D20556E6B6E84
:1004C0006F776E202800424144202D2044656164EE
:1004D000202831352900424144202D205761726E79
:1004E000696E672028352900424144202D204F762F
:1004F00065726C6F6164656420283129004F4B2060
:10050000283029002020435332206D69736D6174B7
:1005100063682020202020286E7962626C65732039
:1005200033322D343029002020435330206D69733D
:100530006D617463682020202020286E7962626CCF
:10054000657320302D313529004C6F636B2063615A
:1005500075736573202020203A00202F2037005328
:1005600074617465206F66206368617267653A2004
:100570000043656C6C20696D62616C616E6365201F
:100580003A2000286E6F2063656C6C732072657072
:100590006F7274656429005061636B20766F6C74B0
:1005A0006167652020203A200020430054656D706B
:1005B00020284D6F736665742920203A200020435F
:1005C0000054656D70202843656C6C7329202020D1
:1005D0003A20002025004F7665726C6F61642025FB
:1005E00020202020203A20002025004F44202520D4
:1005F000202020202020202020203A20002025001C
:100600004F7665726C6F6164202520202020203A8F
:1006100020004F7665726C6F6164202320202020BB
:10062000203A20002025004F442025202020202093
:100630002020202020203A20004F4420232020206A
:1006400020202020202020203A2000202F2034208D
:100650002028004865616C7468202020202020201C
:1006600020203A20004379636C6520636F756E74B7
:10067000202020203A20004E7962626C65203430C0
:1006800020636F6465203A20004279746520312030
:10069000206F726967696E203A204F6C6420666132
:1006A0006D696C79202833312900427974652031D5
:1006B00020206F726967696E203A20566965746EF2
:1006C000616D2F53616D73756E6720283336290075
:1006D00042797465203120206F726967696E203A13
:1006E000204368696E612F4D7572617461202832F4
:1006F000362900424144004F4B00424144004F4BD9
:1007000000417578204353756D2034382D363120E3
:100710003A2000424144004F4B004175782043533A
:10072000756D2034342D3437203A20004241440086
:100730004F4B00436865636B73756D2033322D3406
:1007400030203A2000424144004F4B00436865632B
:100750006B73756D2031362D3331203A20004E6F8A
:100760000059455300436865636B73756D20302DE8
:10077000313520203A2000554E4C4F434B45440024
:100780004C4F434B45440043656C6C206661696C7B
:100790007572652020203A20004C6F636B207374C3
:1007A00061747573202020203A20002041680043A6
:1007B00061706163697479202020202020203A2014
:1007C0000031302063656C6C20424C333678780001
:1007D000352063656C6C20424C31387878003420C9
:1007E00063656C6C20424C313478780020202800FE
:1007F0004261747465727920747970652020203AA2
:1008000020004465746563746564207479706520A4
:10081000203A200028756E617661696C61626C65B2
:1008200029004D6667206461746520202020202007
:10083000203A2000524F4D204944202020202020E3
:100840002020203A20004D6F64656C20202020205D
:1008500020202020203A200033322D34303D6261A8
:10086000640033322D34303D6F6B0031362D33311F
:100870003D6261640031362D33313D6F6B00302DA8
:1008800031353D62616400302D31353D6F6B0020A4
:10089000204441303420636C6561722E2E2E00207E
:1008A00020436865636B73756D73203A20002020C8
:1008B0004E6F20726573706F6E7365206475726918
:1008C0006E67207665726966792E002020002020F0
:1008D000526570616972206672616D65203A200010
:1008E00042617474657279207374696C6C206C6FEA
:1008F000636B65642E004261747465727920737550
:10090000636365737366756C6C7920756E6C6F6369
:100910006B65642E0020202D3E204672616D65209F
:10092000726570616972206661696C65642E002071
:10093000202D3E2052657061697265642062757475
:10094000207374696C6C206C6F636B65642E20522D
:1009500065747279696E672E0020202D3E204672E4
:10096000616D65207265706169722073756363657E
:10097000656465642E20554E4C4F434B45442E0014
:1009800029002D2D2D205374657020323A20467297
:10099000616D65207265706169722028617474658B
:1009A0006D7074200020202D3E205374696C6C20E3
:1009B0006C6F636B65642E2050726F63656564694C
:1009C0006E6720746F206672616D6520726570615C
:1009D00069722E0020202D3E20554E4C4F434B4532
:1009E0004420627920444130342E002D2D2D205397
:1009F00074657020313A204441303420726573654B
:100A0000740042617474657279204C4F434B4544C5
:100A10002E002E20536B697070696E672E00556E24
:100A20006C6F636B206E6F7420737570706F72746F
:100A3000656420666F72207479706520004261746D
:100A40007465727920554E4C4F434B45442E0043FC
:100A50006F6D706C6574652E005620E28094206383
:100A60006865636B2062616C616E63696E67207498
:100A70006162732E005741524E494E473A204365FA
:100A80006C6C20696D62616C616E6365200057411A
:100A9000524E494E473A20766F6C746167652072FA
:100AA000656164206661696C65643B2063656C6C9C
:100AB0002064617461206D6179206265206D6973C5
:100AC00073696E672E004261747465727920726575
:100AD0006D6F76656420647572696E6720736361FB
:100AE0006E2E2041626F7274696E672E00426174CF
:100AF0007465727920666F756E6420203A2000203C
:100B00002020202020202020444F204E4F542063BE
:100B10006861726765206F6E20616E79206368611D
:100B2000726765722E002020202020202020204681
:100B30007265657363616C65204D433930384A4B8B
:100B4000334520424D53202D2D206E6F2063656C60
:100B50006C2070726F74656374696F6E2E005741FC
:100B6000524E494E473A205072652D747970652D6A
:100B70003020484330382062617474657279206493
:100B80006574656374656421004552524F523A2082
:100B900042617474657279206E6F7420726573702F
:100BA0006F6E64696E672061667465722072657429
:100BB000726965732E2041626F7274696E672E00D0
:100BC000202052656D6F766520626174746572795C
:100BD00020616E642074727920616761696E2E00F5
:100BE0002020426174746572792072656D6F76653C
:100BF000642E2057616974696E672E2E2E002020A6
:100C00005B4C6F636B5D2042617474657279207216
:100C1000656D6F7665642E2057616974696E672013
:100C2000666F72206E6578742E2E2E002020426131
:100C30007474657279206465746563746564202DCD
:100C4000207374617274696E67207363616E2E0025
:100C500020205B4C6F636B5D204261747465727918
:100C6000206465746563746564202D206F6D65670D
:100C700061206C6F636B696E672E2E2E004D616E66
:100C800075616C2072657363616E20726571756544
:100C9000737465642E002020427269646765207257
:100CA000656D6F7665642E20496E7365727420627F
:100CB00061747465727920746F207363616E2E00A5
:100CC00020204D6F6465206368616E676564202D28
:100CD0003E205343414E202F20554E4C4F434B2036
:100CE0004D4F44450020204750494F302D47504933
:100CF0004F3120627269646765642E20496E7365A6
:100D00007274206261747465727920746F206C6FE4
:100D1000636B2E0020204D6F6465206368616E67F1
:100D20006564202D3E204F4D454741204C4F434B9D
:100D3000204D4F44450000000000240027002A00F9
:100D4000000000080002010000030407000000008A
:100D50000000000000000000250028002B0000001B
:100D600000002300260029000404040404040404F1
:100D70000202020202020303030303030102040846
:100D800010204080010204081020010204081020F5
:100D9000C7134F2511241FBECFEFD8E0DEBFCDBF54
:100DA00012E0A0E0B1E0E2E2F8E502C005900D92A9
:100DB000AA33B107D9F723E0AAE3B2E001C01D923C
:100DC000AC31B207E1F716E0C9ECD6E004C02197D8
:100DD000FE010E94A125C83CD107C9F70E949614C4
:100DE0000C94042C0C94000080910A03E0910B03F6
:100DF000F0910C03F8949181282F209592239183F0
:100E000078943DE743E050E0315029F1DA01119741
:100E1000F1F790819823C1F3F89492819223928301
:100E20009181982B91837894A3EBBBE01197F1F714
:100E3000F894918192239183A3E1B1E01197F1F7A6
:100E40009081982381E009F080E07894E3E6F6E071
:100E50003197F1F7089580E00895EF92FF920F9394
:100E60001F93CF93DF9328E030E080E041E0A3E2DE
:100E7000B0E09FECE92EF12C90910A03E0910B0376
:100E8000F0910C03F8945181592B51836281792F91
:100E90007095672362838D01ED012197F1F75181F0
:100EA00057235183E8012197F1F750817894F70196
:100EB0003197F1F7952309F0842B440F2150310924
:100EC000D9F6DF91CF911F910F91FF90EF90089588
:100ED000CF92DF92EF92FF920F931F93CF93DF9306
:100EE00028E030E041E06BE871E093E7C92ED12CB7
:100EF000CBE2D0E00BED11E090910A03E0910B03FF
:100F0000F0910C03F92EF094582F542389F1F894A2
:100F100052815F2152835181592B5183DE011197F8
:100F2000F1F75281952B92837894F8013197F1F77C
:100F3000440F2150310901F7F894E0910B03F0912F
:100F40000C03918180910A03809598239183E0910D
:100F50000B03F0910C039281892382837894DF91B3
:100F6000CF911F910F91FF90EF90DF90CF90089558
:100F7000F89452815F2152835181592B5183DB01B7
:100F80001197F1F75281952B92837894F601CECF89
:100F9000833081F028F4813099F08230A9F00895EF
:100FA0008730A9F08830C9F08430B1F48091800096
:100FB0008F7D03C0809180008F778093800008959B
:100FC00084B58F7784BD089584B58F7DFBCF8091E4
:100FD000B0008F778093B00008958091B0008F7D2E
:100FE000F9CFCF93DF93E1E4FDE08491EDE7FDE0FD
:100FF000D491E9E6FDE0C491CC23A1F081110E94D7
:10100000C807EC2FF0E0EE0FFF1FE25AF24FA59158
:10101000B491EC91ED2381E090E009F480E0DF9160
:10102000CF91089580E090E0FACF1F93CF93DF93A4
:10103000282F30E0F901E05CF24F8491F901E45887
:10104000F24FD491F901E859F24FC491CC23A9F0A1
:10105000162F81110E94C807EC2FF0E0EE0FFF1F42
:10106000EC5AF24FA591B4918FB7F894EC9111110D
:1010700008C0D095DE23DC938FBFDF91CF911F9105
:101080000895DE2BF8CFCF93DF9390E0FC01E45876
:10109000F24F24918859924FFC0184918823C9F022
:1010A00090E0880F991FFC01EA5CF24FA591B49182
:1010B000FC01EC5AF24FC591D49161110DC09FB75C
:1010C000F8948C91209582238C93888128232883FF
:1010D0009FBFDF91CF910895623051F49FB7F8948C
:1010E0003C91822F809583238C93E8812E2BEFCF28
:1010F0008FB7F894EC912E2B2C938FBFEACF3FB78C
:10110000F8948091520290915302A0915402B091B0
:10111000550226B5A89B05C02F3F19F00196A11DC9
:10112000B11D3FBFBA2FA92F982F8827BC01CD0131
:10113000620F711D811D911D42E0660F771F881F90
:10114000991F4A95D1F708958F929F92AF92BF92BF
:10115000CF92DF92EF92FF926B017C010E947F0899
:101160004B015C01C114D104E104F104B9F00E9407
:101170007F08681979098A099B09683E73408105CF
:10118000910580F321E0C21AD108E108F10888EE48
:10119000880E83E0981EA11CB11CE4CFFF90EF9055
:1011A000DF90CF90BF90AF909F908F9008952FB712
:1011B000F89460914E0270914F028091500290918C
:1011C00051022FBF0895262F2695820F911DFC01F5
:1011D000808160FD02C08F7008958295FCCFAF9230
:1011E000BF92CF92DF92EF92FF920F931F93CF9314
:1011F000DF936C017B018B01040F151FEB015E0176
:10120000AE18BF08C017D10759F06991D601ED910A
:10121000FC910190F081E02DC6010995892B79F7A9
:10122000C501DF91CF911F910F91FF90EF90DF905B
:10123000CF90BF90AF900895FC01538D448D252F22
:1012400030E0842F90E0821B930B541710F0CF9660
:10125000089501970895FC01918D828D981761F092
:10126000A28DAE0FBF2FB11D5D968C91928D9F5FA9
:101270009F73928F90E008958FEF9FEF0895FC0188
:10128000918D828D981731F0828DE80FF11D858D3B
:1012900090E008958FEF9FEF0895FC01918D228DCE
:1012A000892F90E0805C9F4F821B91098F73992753
:1012B000089587E592E00E944D0921E0892B09F409
:1012C00020E0822F089580E090E0892B29F00E9491
:1012D000590981110C9400000895FC01A48DA80FF8
:1012E000B92FB11DA35ABF4F2C91848D90E0019668
:1012F0008F739927848FA689B7892C93A089B18988
:101300008C91837080648C93938D848D981306C028
:101310000288F389E02D80818F7D80830895EF928C
:10132000FF920F931F93CF93DF93EC0181E0888F9F
:101330009B8D8C8D98131AC0E889F989808185FF6F
:1013400015C09FB7F894EE89FF896083E889F98911
:1013500080818370806480839FBF81E090E0DF9113
:10136000CF911F910F91FF90EF900895F62E0B8D66
:1013700010E00F5F1F4F0F731127E02E8C8D8E1121
:101380000CC00FB607FCFACFE889F989808185FF88
:10139000F5CFCE010E946D09F1CFEB8DEC0FFD2F43
:1013A000F11DE35AFF4FF0829FB7F8940B8FEA8943
:1013B000FB8980818062CFCF0F931F93CF93DF9300
:1013C0008C01D0E0C0E0F801EC0FFD1F64916623B2
:1013D00041F087E592E00E948F09892B11F0219658
:1013E000F2CFCE01DF91CF911F910F910895682F19
:1013F00087E592E00C948F09CF93DF93EC01888D01
:101400008823B9F0AA89BB89E889F9898C9185FD7F
:1014100003C0808186FD0DC00FB607FCF7CF8C910D
:1014200085FFF2CF808185FFEDCFCE010E946D094F
:10143000E9CFDF91CF910895FF920F931F93CF9340
:10144000DF938C01C62FF42ED0E0FC1638F06C2F01
:10145000C8010E94E308D80FCF5FF7CF8D2F8F70A0
:10146000DF91CF911F910F91FF900895CF92DF925E
:10147000EF92FF920F931F93CF93DF938C01EB01B9
:101480008A898D3008F46FC08E3108F06EC085E017
:101490008AAB6B8970E090E080E00E94C32620E078
:1014A00030E040E251E40E9419266BAB7CAB8DAB7F
:1014B0009EAB4FE060E0C8010E941C0AC82EDA8C87
:1014C00081E0CD1080E088AF4FE160E1C8010E946B
:1014D0001C0A91E02B8D281390E099AF48E260E25E
:1014E000C8010E941C0AE82EFC8C81E0EF1080E00D
:1014F0008AAF4FE26CE2C8010E941C0A91E02D8D78
:10150000281390E09BAF4DE360E3C8010E941C0AE2
:1015100091E02E8D281390E09CAFCD1028C01EAE18
:101520001DAEEF1429F08DAD9EAD88609EAF8DAFDE
:1015300062E2C8010E94E308882329F08DAD9EADC8
:1015400080649EAF8DAF81E02DAD3EAD232B09F4BD
:1015500080E08FABDF91CF911F910F91FF90EF90C3
:10156000DF90CF90089584E093CF8AE091CF82E01E
:1015700090E09EAF8DAFD5CF0F931F93CF93DF93A6
:101580008C01D42F0E94E308C82F6D2FC8010E9440
:10159000E30890E1C99FE00111248C2BDF91CF91EA
:1015A0001F910F910895CF92DF92EF92FF920F93C8
:1015B0001F93CF93DF93EC018B0147E166E10E941B
:1015C000BC0AF801808341E260E2CE010E94BC0ABD
:1015D000F801818368E2CE010E94E308F80182836A
:1015E00041E360E3CE010E94BC0AF801838343E338
:1015F00062E3CE010E94BC0AF80184836CE2CE0152
:101600000E94E30882FB882780F9F801878364E35E
:10161000CE010E94E308D82E65E3CE010E94E308C4
:10162000C82E66E3CE010E94E308F0E18F9F7001AF
:101630001124FC2867E3CE010E94E3082D2D30E041
:10164000322F22273295307F22273071E82A2E2927
:101650003F29F8013683258369E2CE010E94E30821
:10166000F80180876AE2CE010E94E308F8018187D1
:101670006BE2CE010E94E308F80182876EE3CE019F
:101680000E94E308F80183876FE3CE010E94E3081C
:10169000F8018487DF91CF911F910F91FF90EF9018
:1016A000DF90CF90089560E088E00C941508CF9209
:1016B000DF92EF92FF920F931F93CF93DF93CDB7FB
:1016C000DEB729970FB6F894DEBF0FBECDBF282F27
:1016D0008091F6029091F702892B09F449C0872F77
:1016E00090E0B0E0A0E0BA2FA92F982F8827A62B72
:1016F000822BAD0166277727C92EDA2EEB2EFF2429
:101700001C2D382F2091FC02222391F0022F10E093
:10171000049FF001059FF00D149FF00D11244F2F31
:101720002C9D600111241D2D289FC0011124392FEB
:10173000E09102038091FD029091FE022091FF0250
:10174000E21721F0E80FF92FF11D1082E091FF025E
:10175000E80FF92FF11D4083E0910003E80FF92F06
:10176000F11D108320910103820F911DFC01308334
:101770008091FD029091FE02892B09F47CC00E94A9
:101780007F08009103031091040320910503309119
:101790000603601771078207930740F46093030301
:1017A0007093040380930503909306030091030351
:1017B000109104032091050330910603601B710B07
:1017C000820B930B6C32714081059105C0F2F89445
:1017D0008091F8029091F9029A838983E091FD0249
:1017E000F091FE02DF011196808189879091F402C9
:1017F000E0910703F091080380910903992309F40C
:1018000049C09081982B98879081809589238F83F8
:101810008F818C8388E08B8358856F8149853B81DC
:101820002C8189819A81508347FD252F3A95208309
:10183000262F39F0441F00C000006083000000C064
:10184000F2CF38E04D9160830000019761F7F0938B
:101850000803E093070349873B832C839A8389839A
:1018600078940E947F08609303037093040380932D
:1018700005039093060329960FB6F894DEBF0FBEBA
:10188000CDBFDF91CF911F910F91FF90EF90DF902F
:10189000CF9008959081982B988790818095892387
:1018A0008F838F818E8388E08D8358856F814985F2
:1018B0003D812E8189819A81508347FD252F00C06B
:1018C00000C0208300C000C000C000C000C0608312
:1018D0000000262F3A9541F0441F000000C000C0D0
:1018E00000C000C000C0E8CF38E04D9100C0608368
:1018F00000C0019709F7F0930803E09307034987B5
:101900003D832E83ABCF60910A0170910B018091D2
:101910000C010C94570B60910701709108018091A4
:1019200009010C94570BCF92DF92EF92FF926B015B
:101930007C0185EFC81681E0D806E104F10468F067
:1019400064EF71E080E090E00E94A40884EFC81A80
:1019500081E0D80AE108F108ECCFC701B601FF9099
:10196000EF90DF90CF900C94A40861E088E00E9493
:10197000150866E970E080E090E00C94930C8F927B
:101980009F92BF92CF92DF92EF92FF920F931F939D
:10199000CF93DF93F82EC62FD42EC52EB22E8111F1
:1019A0000E94B50C0E94F406811111C0F1100E9432
:1019B000530B81E090E0DF91CF911F910F91FF9049
:1019C000EF90DF90CF90BF909F908F9008958C2FD5
:1019D0000E946807C33389F4E801085F1F4F23E6BC
:1019E000822E99249394C4010197F1F70E942D0748
:1019F0008993C017D107B9F78E019D2CCD2DDC2D11
:101A000093E6C92EDD24D394C6010197F1F789919D
:101A10000E9468078C2F89198B15B0F38BE891E031
:101A20000197F1F7E8010E0D111D83E6C82EDD24A4
:101A3000D394C017D10739F0C6010197F1F70E947E
:101A40002D078993F6CFF1100E94530B90E080E0B0
:101A5000B2CFEF920F931F93CF93DF93CDB7DEB743
:101A600028970FB6F894DEBF0FBECDBF262F8E018C
:101A70000F5F1F4F38E0F80111923A95E9F7E12C1A
:101A8000AC0163E381E00E94BF0C28960FB6F89486
:101A9000DEBF0FBECDBFDF91CF911F910F91EF90B1
:101AA0000895EF920F931F93E22E8A01262FAC0127
:101AB0006CEC81E00E94BF0C1F910F91EF90089594
:101AC0000F931F93CF938B01C42F242FAB0164E09E
:101AD0000E94510D892B41F4F801EC0FF11D319753
:101AE00081E09081963009F080E0CF911F910F91B5
:101AF0000895CF93DF93D82FC92F20E2482F592F75
:101B000062E083E191E00E94510D892BB1F4ED2F49
:101B1000FC2FAF01405E5F4F8FEF90E02191922B41
:101B20008223E417F507D1F7992339F08F3F41F06D
:101B300081E090E0DF91CF91089590E080E0FACFCE
:101B40008FEF9FEFF7CF0E94530B1092560264E67F
:101B500070E080E090E00E94930C0C94B50CBF9272
:101B6000CF92DF92EF92FF920F931F93CF93DF9369
:101B7000EC01B62E6A01F22E61E088E00E941508A1
:101B8000209729F0BE0190E080E00E94930C0E9413
:101B9000F40681110FC060E088E00E94150880E023
:101BA000DF91CF911F910F91FF90EF90DF90CF9039
:101BB000BF9008958BE896E00197F1F7BB2039F0CC
:101BC0008CEC0E94680783E691E00197F1F7F6013B
:101BD00080810E946807C3E6D1E0CE010197F1F74A
:101BE000F1E0FF1631F0F60181810E94680721972C
:101BF000F1F7E801E00EF12EF11C03E611E0EC161E
:101C0000FD0639F00E942D078993C8010197F1F76D
:101C1000F6CF60E088E00E94150881E0C1CFEF9226
:101C20000F931F93E22E8A01262FAC0161E084EA14
:101C300091E00E94AF0D1F910F91EF900895CF9307
:101C4000DF931F92CDB7DEB780913D02882391F0DC
:101C5000198221E0AE014F5F5F4F63E080E191E0C8
:101C60000E94510D10923D026EE170E080E090E024
:101C70000E94930C0F90DF91CF9108950F931F93C3
:101C8000CF93DF931F92CDB7DEB7198221E0AE016B
:101C90004F5F5F4F63E08DE091E00E94510D8C013A
:101CA000892B49F481E080933D026EE170E080E091
:101CB00090E00E94930CC8010F90DF91CF911F918B
:101CC0000F910895CF92DF92EF92FF921F93CF93DF
:101CD000DF93CDB7DEB7A2970FB6F894DEBF0FBE85
:101CE000CDBFFC018381843628F485E0442349F08C
:101CF0008FEF07C0FB0181898E3189F486E04111A5
:101D0000F7CFA2960FB6F894DEBF0FBECDBFDF911E
:101D1000CF911F91FF90EF90DF90CF900895142FF7
:101D2000AE014E5E5F4F81E1FA0111928A95E9F7AB
:101D300021E162E08BE191E00E94510D892B29F4B1
:101D40008AA1863011F480E0DCCF0E943E0E9E0115
:101D50002F5F3F4F7901892BC1F481E1F901119285
:101D60008A95E9F721E1A70162E089E191E00E940B
:101D7000510D6C010E941F0E0E94A30DCD2829F465
:101D80008989863011F482E0BCCF19821A821B82C5
:101D900023E0A70164E085E191E00E94510D892BC9
:101DA00019F48B81863019F0812F8195AACF83E0B9
:101DB000A8CFCF9361E088E00E94150866E970E043
:101DC00080E090E00E94930C0E94F406C82F60E02F
:101DD00088E00E94150881E0C13009F080E0CF91D1
:101DE0000895CF92DF92EF92CF936B01E82E10927D
:101DF0003E02C3E08E2DB6010E94570B68EC70E0E6
:101E000080E090E00E94930C0E948B0C64E670E0EE
:101E100080E090E00E94930CC15061F78E2DB601D6
:101E2000CF91EF90DF90CF900C94570B882339F02F
:101E30009EEF980F81E0923018F080E0089581E0E5
:101E40000895FC0101900020E9F73197AF01481B8C
:101E5000590BBC0187E592E00C94EF088DE791E007
:101E60000C94210FCF93DF930E94DC09EC010E94B8
:101E70002E0F8C0F9D1FDF91CF91089588E690E083
:101E80000C94320FCF93DF9389E20E94F709EC01A3
:101E90000E942E0F8C0F9D1FDF91CF9108958F927E
:101EA0009F92AF92BF920F931F93CF93DF93CDB7C3
:101EB000DEB7A1970FB6F894DEBF0FBECDBF19A253
:101EC000423008F44AE08E010F5D1F4F842E912CA2
:101ED000B12CA12CA50194010E947F25E62FB90108
:101EE000CA01EA30F4F4E05DD801EE938D01232BB2
:101EF000242B252B79F790E080E0109719F0CD0185
:101F00000E94210FA1960FB6F894DEBF0FBECDBF81
:101F1000DF91CF911F910F91BF90AF909F908F90C5
:101F20000895E95CE1CFCF93DF93682F70E090E0F4
:101F300080E04AE00E944F0FEC010E942E0F8C0FB0
:101F40009D1FDF91CF910895CF92DF92EF92FF9284
:101F5000CF93DF936C01092E000CEE08FF0897FF6A
:101F60001BC08DE20E94F709EC0166277727CB01A1
:101F70006C197D098E099F094AE00E944F0FC80F16
:101F8000D91F0E942E0F8C0F9D1FDF91CF91FF90C4
:101F9000EF90DF90CF9008954AE0C701B6010E940C
:101FA0004F0FEC01EECFCF92DF92EF92FF92CF93E3
:101FB000DF93EC018FE091E00E94DC090E94D708DA
:101FC0006B017C010E94D7086C197D098E099F095D
:101FD000603177428105910558F5CE010E94790D57
:101FE0000197F9F40E94D7089B01AC012C193D0917
:101FF0004E095F0969017A018CE091E00E94DC09D9
:102000004AE0C701B6010E944F0F87E091E00E94AD
:10201000320F81E0DF91CF91FF90EF90DF90CF9072
:10202000089585E091E00E94DC090E94A30DCACFCB
:102030008AEF90E00E94DC094AE060E177E280E00C
:1020400090E00E944F0F85EF90E00E94320F80E0F9
:10205000E1CFCF92DF92EF92FF928BED90E00E9462
:10206000DC090E94D7086B017C010E94D7086C191B
:102070007D098E099F09603177428105910540F500
:102080000E94A30D0E94F4068130E9F40E94D70853
:102090009B01AC012C193D094E095F0969017A01C8
:1020A00085ED90E00E94DC094AE0C701B6010E947C
:1020B0004F0F80ED90E00E94320F81E0FF90EF9093
:1020C000DF90CF9008958EEC90E00E94DC09CDCF98
:1020D00083EC90E00E94DC094AE060E177E280E076
:1020E00090E00E944F0F8EEB90E00E94320F80E054
:1020F000E5CF8F929F92AF92BF92CF92DF92EF92F5
:10210000FF920F931F93CF937C010E94D7084B013E
:102110005C01C0E00E94D708681979098A099B0907
:102120006031774281059105C0F5C7010E94790DA4
:102130008C01892B21F1CC23A9F00E94D7086B01D7
:102140007C01C818D908EA08FB0889ED91E00E94D3
:10215000DC094AE0C701B6010E944F0F84ED91E00F
:102160000E94320FC801CF911F910F91FF90EF9005
:10217000DF90CF90BF90AF909F908F900895C11146
:1021800004C08AEC91E00E94DC0988EC91E00E9496
:10219000DC090E94A30DC1E0BDCFC1110E942E0F2A
:1021A0000E94291010E000E08823E1F2C701CF91DE
:1021B0001F910F91FF90EF90DF90CF90BF90AF9065
:1021C0009F908F900C94790D0F931F93CF93DF9373
:1021D000D82FC92FCB01009711F48CEA90E00E9410
:1021E000DC090D2F1C2FC0E0DBE0F80181918F018D
:1021F000803118F480E30E94F709F801319760817B
:1022000070E090E080E040E10E944F0FCF3119F084
:1022100080E20E94F709CF5FC03231F4DF91CF91A5
:102220001F910F910C942E0F8C2F6D2F0E945F2504
:102230009111DBCF0E942E0F8AE990E00E94DC0909
:10224000D4CFCF93DF93D0E0C0E0009719F00E9485
:10225000210FEC010E942E0F8C0F9D1FDF91CF915B
:1022600008954F925F926F927F928F929F92AF925A
:10227000BF92CF92DF92EF92FF920F931F93CF9373
:102280006B017C01742EAC019B010E94E527882321
:1022900099F080E891E0CF911F910F91FF90EF901E
:1022A000DF90CF90BF90AF909F908F907F906F9076
:1022B0005F904F900C94210F46015701E894B7F8B6
:1022C0002FEF3FEF4FE75FE7C501B4010E94E5271D
:1022D00081110DC02FEF3FEF4FE75FE7C501B4015C
:1022E0000E94142618161CF484E891E0D4CF2FEF36
:1022F0003FEF4FE75FE4C701B6010E94732718164E
:102300001CF488E891E0C7CF2FEF3FEF4FE75FEC79
:10231000C701B6010E94142687FDF3CF20E030E00C
:10232000A901C701B6010E94142610E000E087FF52
:1023300008C08DE20E94F7098C01F7FAF094F7F8D3
:10234000F094C0E060E070E080E09FE37C1641F034
:1023500020E030E040E251E40E941926CF5FF6CF42
:10236000A70196010E94A8252B013C010E949226FC
:102370004B015C014AE00E944F0F7C01E00EF11E10
:10238000CC23B1F1C501B4010E94C1269B01AC016F
:10239000C301B2010E94A7254B015C018EE20E949D
:1023A000F709E80EF91EC15018F120E030E040E2D4
:1023B00051E4C501B4010E9478272B013C010E9421
:1023C00092264B01B12CA12C4AE0C501B4010E9418
:1023D0004F0FE80EF91EC501B4010E94C1269B01F2
:1023E000AC01C301B2010E94A7254B015C01DBCF08
:1023F000C701CF911F910F91FF90EF90DF90CF9089
:10240000BF90AF909F908F907F906F905F904F9014
:102410000895CF93DF9343E00E943111EC010E94B5
:102420002E0F8C0F9D1FDF91CF9108958F929F9259
:10243000AF92BF92CF92DF92EF92FF920F931F93D2
:10244000CF93DF93CDB7DEB7A8970FB6F894DEBF72
:102450000FBECDBF4B015A01F22E9E012F5F3F4FA1
:10246000690128E2F60111922A95E9F7EF2C86011D
:1024700022E0AC0163E381E00E94BF0C8C01892B58
:1024800079F488E0F601D40101900D928A95E1F784
:102490004F2D50E0BE01675F7F4FC5010E940F299D
:1024A000C801A8960FB6F894DEBF0FBECDBFDF916E
:1024B000CF911F910F91FF90EF90DF90CF90BF9041
:1024C000AF909F908F9008950F931F93CF93DF93BA
:1024D000CDB7DEB7A0970FB6F894DEBF0FBECDBF65
:1024E0008C01AE014F5F5F4F80E2FA0111928A9535
:1024F000E9F720E2B80183E191E00E941612892BEE
:1025000089F088E0F80111928A95E9F780E0A096B9
:102510000FB6F894DEBF0FBECDBFDF91CF911F91F4
:102520000F91089581E0F3CFEF92FF920F931F93E5
:10253000CF93DF93CDB7DEB7A2970FB6F894DEBF87
:102540000FBECDBF7C018B010E943E0E892BC9F0CE
:10255000C8010E94DC0989EA91E00E94320F0E94C2
:102560002910882309F464C00E943E0E892B49F08B
:10257000C8010E94DC0989E191E00E94320F80E0ED
:1025800057C080915602882349F08CE791E00E9461
:10259000320F0E941F0E0E94A30DF1CF8E010F5F1C
:1025A0001F4F80E2F80111928A95E9F720E2A80115
:1025B00062E08CE291E00E94510D892B19F088E6CF
:1025C00091E0E5CF81E0809356026EE170E080E01B
:1025D00090E00E94930C8FE089831A8280E2F701D9
:1025E000DE01139601900D928A95E1F762E2C8012F
:1025F0000E94290D892B19F082E591E0C8CF6EE188
:1026000070E080E090E00E94930C62E08DE191E048
:102610000E94290D892B19F08CE391E0B8CF6EE16F
:1026200070E080E090E00E94930C0E941F0E81E019
:10263000A2960FB6F894DEBF0FBECDBFDF91CF914B
:102640001F910F91FF90EF9008951F920F920FB678
:102650000F9211242F933F938F939F93AF93BF9328
:1026600080914E0290914F02A0915002B091510280
:1026700030914D0223E0230F2D3758F50196A11D0F
:10268000B11D20934D0280934E0290934F02A09370
:102690005002B09351028091520290915302A09146
:1026A0005402B09155020196A11DB11D80935202B2
:1026B00090935302A0935402B0935502BF91AF91EF
:1026C0009F918F913F912F910F900FBE0F901F9070
:1026D000189526E8230F0296A11DB11DD2CF1F9297
:1026E0000F920FB60F9211242F933F934F935F9346
:1026F0006F937F938F939F93AF93BF93EF93FF93CA
:1027000087E592E00E946D09FF91EF91BF91AF9133
:102710009F918F917F916F915F914F913F912F91F9
:102720000F900FBE0F901F9018951F920F920FB62B
:102730000F9211242F938F939F93EF93FF93E09128
:102740006702F09168028081E0916D02F0916E0263
:1027500082FD1BC09081809170028F5F8F732091EA
:102760007102821741F0E0917002F0E0E95AFD4FEA
:10277000958F80937002FF91EF919F918F912F9190
:102780000F900FBE0F901F9018958081F4CF10927C
:102790005A021092590288EE93E0A0E0B0E08093D4
:1027A0005B0290935C02A0935D02B0935E028FE6A1
:1027B00091E0909358028093570285EC90E09093BB
:1027C00064028093630284EC90E0909366028093AD
:1027D000650280EC90E0909368028093670281EC40
:1027E00090E090936A028093690282EC90E090936B
:1027F0006C0280936B0286EC90E090936E02809363
:102800006D02109270021092710210927202109278
:10281000730260E086E00E944308E2E8FDE0E49194
:10282000E0930A03EEE6FDE0E491F0E0EE0FFF1F17
:10283000E25AF24F8591949190930C0380930B038D
:10284000109215031092170310921603109214039E
:10285000109213031092120310921103109210039E
:1028600010920F0310920E0310920D031092F502B6
:102870001092FC02109203031092040310920503BD
:102880001092060381E0809302038093FF0210926E
:10289000000392E0909301038093F40283E090E0C0
:1028A0009093F9028093F8020E94EA279093FE0227
:1028B0008093FD02009789F123E0FC0111922A9593
:1028C000E9F781E090E09093F7028093F60280E1CF
:1028D00090E09093FB028093FA028091F5028823A6
:1028E00041F061E080E10E94430860E080E10E94E5
:1028F0001508E8E7FDE0E491F0E0EE0FFF1FEC5A69
:10290000F24F859194919093080380930703ECE82C
:10291000FDE0E491E093090308951092F90210920A
:10292000F8021092F7021092F602D1CFCF93DF9304
:10293000CDB7DEB7CE53D1400FB6F894DEBF0FBE91
:10294000CDBF789484B5826084BD84B5816084BD38
:1029500085B5826085BD85B5816085BD80916E003D
:10296000816080936E00109281008091810082606E
:1029700080938100809181008160809381008091AB
:1029800080008160809380008091B100846080939A
:10299000B1008091B00081608093B00080917A0096
:1029A000846080937A0080917A00826080937A00BC
:1029B00080917A00816080937A0080917A008068AB
:1029C00080937A001092C100E0916702F091680252
:1029D00082E08083E0916302F09164021082E091D2
:1029E0006502F091660280E1808310926F02E091AF
:1029F0006B02F0916C0286E08083E0916902F091B5
:102A00006A02808180618083E0916902F0916A02AC
:102A1000808188608083E0916902F0916A02808100
:102A200080688083E0916902F0916A0280818F7DE5
:102A3000808361E088E00E94430860E088E00E94B3
:102A4000150861E080E00E94430860E080E00E9499
:102A5000150862E081E00E9443086EEE72E080E0BB
:102A600090E00E94A4088091FA029091FB0297FDE9
:102A70002EC061E00E94430860E08091FA020E944B
:102A8000150881E08093F5026091FC02613541F107
:102A90002091FD023091FE026150E1F070E08FEF75
:102AA00090E50E946B25F9014091F8025091F902DE
:102AB000CF01821B930B8417950778F44081469FC2
:102AC000C001479F900D112490833196EDCF109255
:102AD000F502DACF70E060E0E6CF81E58093FC029A
:102AE0000E948B0C0E943E0F8FE093E00E94DC0955
:102AF00089E093E00E94320F0E94F107892B09F0D0
:102B000029C186ED92E00E94320F81EA92E00E9494
:102B1000320F82E792E00E94320F01E010E00E9443
:102B20003E0F8FED91E00E94320F109245021092FD
:102B3000440210934C0200934B0220911F013091EC
:102B4000200140912101C25DDE4F288339834A83F1
:102B5000CE52D1401E0131E4230E311C809165011B
:102B600090916601A0916701CF5CDE4F88839983C5
:102B7000AA83C153D14020916001309161014091FD
:102B80006201CC5CDE4F288339834A83C453D14031
:102B9000A1014E5E5F4FC95CDE4F59834883C75326
:102BA000D1408091680190916901A0916A01C75C50
:102BB000DE4F88839983AA83C953D140DE01A05890
:102BC000BF4FCD5DDE4FB983A883C352D1402E01E4
:102BD000B7EB4B0E511C2091680130916901409177
:102BE0006A01C45CDE4F288339834A83CC53D140C9
:102BF0000E94D7086B017C0100914B0210914C029E
:102C00008091470290914802A0914902B0914A02F6
:102C1000A7019601281B390B4A0B5B0BDA01C9018E
:102C2000C297A105B105D8F080904402909045026A
:102C3000C0924702D0924802E0924902F0924A02C2
:102C40000E94F10777247394892B09F0712CA72C2B
:102C5000B12CA016B10609F08CC0109246020115E5
:102C60001105F1F4A0904402B090450287E592E08E
:102C70000E944D09892BA1F087E592E00E942B0963
:102C80008F7D833569F4AA94AB2851F08DE79CE0E1
:102C90000E94320F81E090E09093450280934402BD
:102CA0008091400290914102A0914202B091430272
:102CB000A7019601281B390B4A0B5B0BDA01C901EE
:102CC000883C9105A105B10540F1A0904402B09067
:102CD0004502C0924002D0924102E0924202F0923C
:102CE00043020E94D90EA114B10409F074C08823D4
:102CF00009F471C00E943E0F80E59CE0013011058F
:102D000011F08CE29CE00E94320F0E943E0F81E0A5
:102D100090E0909345028093440280914402909108
:102D20004502009709F077C081E0012B09F080E0AF
:102D30008093000181E080933E0280E090E0892B47
:102D400009F456CF0E945909882309F437CF0E940D
:102D5000000034CF8CE492E00E94320F8BE192E0CD
:102D60000E94320F86EF91E00E94320F10E000E0E7
:102D7000D6CE809146028F5F843018F4809346024D
:102D80006ECF10924602B0924C02A0924B02C40148
:102D90000297029710F08928A9F40E948B0C1092D8
:102DA0004502109244020E943E0F31E073120CC0A3
:102DB00084E19DE00E94320F85EE9CE00E94320F7C
:102DC0000E943E0F85014BCF80EC9CE00E94320FA9
:102DD00086E99CE0F3CF32E0A31AB10842E0A416E2
:102DE000B10408F09ACF811198CF0E943E0F8EEF68
:102DF0009BE00130110511F080EE9BE00E94320F44
:102E00000E943E0F0E948B0C1092450210924402C9
:102E100010923F0282CF10923E02019709F08DCFAF
:102E200080913D020130110509F038C181110E94E5
:102E30001F0E0E94A30DC25DDE4F688179818A81D9
:102E4000CE52D1400E94570B88E0D2011D928A9544
:102E5000E9F7C2010E946412182F80E2CD5DDE4FB7
:102E6000E881F981C352D14011928A95E9F7CE01E8
:102E700080589F4F0E94791081309105F9F001969A
:102E800039F482E594E00E94320F0E94830C0CC05A
:102E900082E394E00E94320F6091680170916901B1
:102EA00080916A010E94F10E0E94530BCB5DDE4FB0
:102EB0001882C552D14083E090E03AC0111104C09D
:102EC0008CE094E00E94320F41E0BE0160587F4FD9
:102ED000C2010E94620E182F8CEF93E00E94DC0961
:102EE00017FF03C08CED93E0CECF812F110F990B0C
:102EF0000E94A40FCF56DF4F8881C159D0408F70F8
:102F000009F449C084EA93E00E94320F609168019D
:102F10007091690180916A010E94F10E0E94530B29
:102F200021E0CB5DDE4F2883C552D14082E090E0A6
:102F30009093450280934402CB5DDE4FB881C55229
:102F4000D140B111FACE80EC9BE00E94320FF5CE59
:102F5000882361F10E943E0FCB5DDE4FF881C552A0
:102F6000D140FF2309F470C08DE293E00E94320F3C
:102F70000E943E0FE5E6F1E06081718182810E944E
:102F8000F10E0E94530BCB5DDE4F2881C552D1401C
:102F90002111CCCF90CFFF24F394C0906001D0904A
:102FA0006101E09062018E010F5F1F4F82E993E0A3
:102FB0000E94DC098F2D0E94930F80E2FE01E058F1
:102FC000FF4FD10101900D928A95E1F7D101519601
:102FD0008C915197807F846051968C9348E260E297
:102FE000C1010E941C0AF10195899F708295807F22
:102FF000892B858B8E2DB6010E94570B68E873E0F4
:10300000C1010E949412CB5DDE4F8883C552D1402E
:10301000811103C00E94530B4ECF0E94A30D80E28A
:10302000D8011D928A95E9F7C8010E94D30FCB5DA4
:10303000DE4F8883C552D140811114C082E793E0EE
:103040000E94320F0E943E0F8CE193E00E94320FEB
:103050000E943E0FCB5DDE4F1882C552D140E8E69C
:10306000F1E08ACF8CE593E00E94DC098A898F70B9
:103070000E94930F8A898F70F394B7E0FB1268CF98
:10308000E1E0CB5DDE4FE883C552D140811162CFD4
:10309000CB5DDE4F1882C552D1405CCF81110E94BA
:1030A0001F0E0E94A30DC25DDE4F688179818A8167
:1030B000CE52D1400E94570B8FE3D1011D928A95C9
:1030C000E9F780E090ECA9E7B4ECF10186A797A7B7
:1030D000A0ABB1AB82A793A7A4A7B5A78FEF818BB5
:1030E0009E0129503F4FC15EDE4F39832883CF5167
:1030F000D14080E2D9011D928A95E9F7C9010E9469
:103100007910009749F489E89BE00E94320F0E94F1
:10311000530B10925602CACE019619F50E943E0F2B
:103120008EE59BE00E94320F86E29BE00E94320F08
:103130008FEF9AE00E94320F0E943E0F609168016B
:103140007091690180916A010E94F10E0E94530BF7
:1031500010925602E1E0CB5DDE4FE883C552D140CC
:10316000E5CEB1016E5E7F4FCE0189509F4F0E9428
:10317000D30AB101CE0189509F4F0E94360AC10186
:1031800008960E946412D10150968C93811104C05C
:103190008AE794E00E94320F40E0BE0169507F4F01
:1031A000C10108960E94620EF101818B853009F001
:1031B000BCC0C058DF4F1882C058D040E12C8E01EF
:1031C00000581F4F21E043E251E061E090E080E0D1
:1031D0000E94AF0D81116FC063E971E0C1010E94CF
:1031E00018290E943E0F8DEE9AE00E94DC09C10171
:1031F0000E94211187E3CD5DDE4FE881F981C35242
:10320000D14011928A95E9F7D10151968C9151974D
:10321000853009F4B2C0FE0131966F01D2967C90E0
:10322000863009F413C28BE111928A95E9F7F5E033
:10323000F71510F495E0792E2BE1A60164E084E304
:1032400091E00E94510D892B09F08DC269817A812C
:103250006115710509F487C290E080E00E94C126E3
:1032600020E030E04AE754E40E9419264B015C015B
:103270008E0100581F4F612CB2E0CB0ED11C0C5FA9
:103280001F4F761409F48AC2F60161818081762F7E
:10329000682F90E080E00E94C12620E030E04AE7FD
:1032A00054E40E941926D8016D937D938D939C93CD
:1032B00013976394E1CF6AE070E080E090E00E94B1
:1032C000930C1A82198272E0E72E8E010F5F1F4F56
:1032D00021E042E251E060E090E080E00E94AF0D2A
:1032E000882309F479CF99818A819F3FC1F48F3F68
:1032F00009F472CF1F929F931F928F938AE991E0F6
:103300009F938F931F9288E08F933F922F920E94FA
:103310001F290FB6F894DEBF0FBECDBF62CF91114B
:10332000E9CF882309F458CFE5CF8E010F5F1F4FF7
:1033300080E1D8011D928A95E9F720E1A80162E0B9
:1033400084E291E00E94510D892B19F0F101108265
:1033500048CFF801D1019E01285F3F4F819190EE47
:10336000980F9F3528F01C92D10117961C9239CFE7
:103370008D93E217F30791F7F7CF6AE070E080E0F2
:1033800090E00E94930CD101D2966C90F2011182D0
:10339000108220E0A20162E08CE291E00E940F0E18
:1033A000882309F446C120E0A20162E08CE291E0AA
:1033B0000E940F0E22E0A20161E087E291E00E94EC
:1033C0000F0EF5E0F61510F465E0662E9E0120580C
:1033D0003F4F790110E000E0712C812C912C5401B9
:1033E0000615B0F51A82198222E0AE014F5F5F4FD9
:1033F00061E0C801895D9E4F0E940F0E882311F184
:1034000069817A81CB0101978E3F9F4FD8F490E07C
:1034100080E00E94C12620E030E04AE754E40E94A8
:1034200019269B01AC01D70114962D933D934D9322
:103430005C931797C501B4010E94A8254B015C015C
:10344000772473940F5F1F4FB4E0EB0EF11CC8CFCD
:10345000E72DE1707E2E1A82198222E0AE014F5FC5
:103460005F4F61E086E291E00E940F0E882309F42D
:10347000D8C069817A81CB0101978E3F9F4F08F0B8
:10348000D0C090E080E00E94C12620E030E048EC0F
:1034900052E40E9419266B017C0160E070EC89E720
:1034A00094ECD1019A96CD92DD92ED92FC929D978B
:1034B000F10166A777A780AB91AB8189863009F0CF
:1034C0003DC00E94B50C0E94F406082F10E088232E
:1034D00071F083E691E00197F1F782ED0E946807B1
:1034E0008BE891E00197F1F70E942D07182F0E94B9
:1034F000530B60E070EC89E794EC0023C1F0612F7E
:1035000070E090E080E00E94C32620E030E040E2DE
:1035100052EC0E94782720E03CEA41E156E40E9408
:10352000A82520E030E048EC52E40E941926D101A1
:103530009A966D937D938D939C939D97FE01E05A8F
:10354000FF4F8BE0DF011D928A95E9F7F1011189A8
:103550008BEF810F823008F09AC126892E3108F452
:1035600093C12D51330BD10157960D911C91589752
:1035700055964C9183E290E0841B910997FF02C01D
:1035800090E080E0820F931F809FB001819F700DBB
:10359000909F700D112490E080E00E94C12620E0F1
:1035A00030E040E05DE30E9478276B017C01B801C8
:1035B00090E080E00E94C1269B01AC01C701B601EA
:1035C0000E94A8256B017C01F10183898A3141F0B9
:1035D0008C3131F0883221F068E572E0823311F4E9
:1035E00068EE73E090E080E00E94C1269B01AC0190
:1035F000C701B6010E9419269B01AC0160E070E092
:1036000080E890E40E94A7256B017C0120E030E077
:10361000A9010E94142687FFA5C2C12CD12C7601D6
:10362000A1C2C12C50ECD52E59E7E52E54ECF52E55
:1036300034CFC12C40ECD42E49E7E42E44ECF42ED8
:10364000712C612C812C912C540127CFD2011C921A
:1036500084E111928A95E9F70E94B50CE12C820170
:1036600022E04EE251E06CEC80E00E94BF0C6AE088
:1036700070E080E090E00E94930C0E94F406682EB7
:103680008823F1F083E691E00197F1F784ED0E9441
:1036900068078BE891E00197F1F756018E010B5E08
:1036A0001F4F33E6E32EFF24F3940E942D07D5012C
:1036B0008D935D01C7010197F1F70A171B07A9F761
:1036C0000E94530B662009F440C0BAE0B71510F40D
:1036D0002AE0722E8E0100581F4F612C812C912CF4
:1036E00054010C5F1F4F7614D9F1F601618180817E
:1036F000762F682F90E080E00E94C12620E030E025
:1037000040E251E40E9419269B01AC0160E070E8A0
:103710008BEB95E40E94A72520E030E04AE754E4D3
:103720000E9419269B01AC01D8012D933D934D9326
:103730005C931397C501B4010E94A8254B015C015D
:103740006394B2E0CB0ED11CCCCF712C812C912C88
:10375000540160E070EC89E794EC6B017C01A1CE30
:1037600077247394F6CF8DE0D2011D928A95E9F704
:103770002DE0A20164E080E391E00E94510D892BCD
:1037800009F441C060E070EC89E794EC6B017C01C6
:10379000712C612C812C912C540183CE6F857889FA
:1037A00009891A89CB0101978E3F9F4FF8F490E069
:1037B00080E00E94C12620E030E048EC52E40E9404
:1037C00019266B017C01C80101978E3F9F4FB0F411
:1037D000B80190E080E00E94C12620E030E048EC93
:1037E00052E40E941926772473945BCEC12C80EC9E
:1037F000D82E89E7E82E84ECF82EE5CF60E070EC57
:1038000089E794ECF0CFD2011C968C911C978630FE
:1038100009F0B8CF6D917C9190E080E00E94C126C4
:1038200020E030E04AE754E40E9419264B015C0195
:103830008201FE01E058FF4F7F01612C0E5F1F4F98
:10384000F4E0EF0EF11C7614C1F0D80111966C91E2
:1038500011978C91762F682F90E080E00E94C1260E
:1038600020E030E04AE754E40E941926F701608323
:103870007183828393836394E1CF60E070EC89E786
:1038800094EC6B017C01AFCF30E020E06CCE812F57
:103890000E94160F882309F448C1F101F389CB5D1A
:1038A000DE4FF883C552D14019821A821B8281E013
:1038B000123021F082E0133009F080E024E0829F92
:1038C000C001112443E08E010F5F1F4FB801885CD7
:1038D0009E4F0E94600D69817A81811102C070E063
:1038E00060E0CB5DDE4F3881C552D1403323C9F152
:1038F00090E080E00E94C1266B017C01CB5DDE4F31
:103900004881C552D140642F70E090E080E00E9471
:10391000C3269B01AC01C701B6010E9419266B01A9
:103920007C0120E030E040EA52E40E947327181640
:103930000CF49FC020E030E040E251E4C701B60142
:103940000E94192620E030E040EA50E40E94A725BA
:103950006B017C0120E030E0A9010E94142687FF62
:1039600003C0C12CD12C7601D1015F96CD92DD929E
:10397000ED92FC9292975196FC908F2D0E94160F1B
:1039800081117EC080E0D10195968C9395975196D8
:103990008C91823009F48DC0833009F4A9C0811163
:1039A000BDC088E0F80111928A95E9F748E0B801B6
:1039B00088E591E00E94600D882309F4AFC02F8153
:1039C000F0E12F9FA0011124407F53709E81292F89
:1039D00030E0F4E035952795FA95E1F7242B352B67
:1039E0008D8190E0982F8827882793704C81842BB5
:1039F000820F931F498142954695469543702A81CF
:103A000054E0259F90011124242B820F931FD10194
:103A100094969C938E93939751968C91811181C02B
:103A200085E0F80111928A95E9F745E0B8018CE547
:103A300091E00E94600D882309F473C089819A8106
:103A4000AB81BC81F10186A397A3A0A7B1A70E9477
:103A5000D90ECB5DDE4F8883C552D14081118AC01B
:103A600086EC9AE00E94320F0E94530B109256028D
:103A700022CAC12CD12CB0E8EB2EB0E4FB2E74CFBF
:103A80001A821982B2E081E0FB1621F0E3E082E0C5
:103A9000FE1280E0F4E08F9FC001112442E0B801E3
:103AA0008C5B9E4F0E94600D882309F46BCF898147
:103AB0006ACF88E0D8011D928A95E9F748E0B801FD
:103AC00084E591E00E94600D882341F129818B817A
:103AD000E22FE80FFF27FF1F2C812E0F3F2F311DF4
:103AE0008E81280F311D8F81820F932F911D8FCFD3
:103AF00086E0D8011D928A95E9F746E0B80180E595
:103B000091E00E94600D882349F089819B81E82F14
:103B1000E90FFF27FF1F9F018C81E6CF90E080E037
:103B200076CF80E090E0DC018DCFC25FDE4F688110
:103B3000CE50D1406F7070E075956795633060F03E
:103B4000673009F46ACD62507109072E000C880BAA
:103B5000990B0E94C32650CDC12CD12C60E8E62ED3
:103B600060E4F62ED1015F96CD92DD92ED92FC924B
:103B700092976DCFC55DDE4F7882CB52D1407110E8
:103B800004C08EE89AE00E94320F0E943E0F86E445
:103B900098E00E94DC09C1010E94211184E398E0B1
:103BA0000E94DC09F1018089882309F44EC181015A
:103BB000085F1F4FF12CD8018D918D01803118F4D1
:103BC00080E30E94F709F8013197608170E090E08E
:103BD00080E040E10E944F0FB7E0FB1619F080E251
:103BE0000E94F709F394E8E0FE12E5CF0E942E0F41
:103BF000D10118968C9118971F928F9319968C91DA
:103C000019971F928F931A968C911F928F9385EA22
:103C100091E09F938F931F928DE08F938E010F5FA2
:103C20001F4F1F930F930E941F2982E298E00E946A
:103C3000DC09C8010E9421110FB6F894DEBF0FBE47
:103C4000CDBF82E098E00E94DC09D10151968C91B1
:103C5000082E000C990B0E94A40F80EF97E00E94A1
:103C6000DC09F101628970E090E080E04AE00E94A6
:103C70004F0F8CEE97E00E94DC09D10152968C9197
:103C80008D3008F0E7C08EED97E00E94DC090E94BD
:103C9000420F8FEA97E00E94DC09F10163A974A941
:103CA00085A996A941E00E9431118BEA97E00E9414
:103CB000320F0E943E0F89E997E00E94DC09D10192
:103CC000D7968C91882309F4CDC080E897E00E94B4
:103CD000320F87E897E00E94DC09F101818D88238B
:103CE00009F4C3C081E697E00E94320F85E697E0B1
:103CF0000E94DC09D101D8968C91882309F4B8C0C0
:103D000089E497E00E94320F8CE497E00E94DC097E
:103D1000F10181AD882309F4AEC080E397E00E94F1
:103D2000320F83E397E00E94DC09D101DA968C918F
:103D3000882309F4A3C087E197E00E94320F8AE14B
:103D400097E00E94DC09F10183AD882309F499C052
:103D50008EEF96E00E94320F81E097E00E94DC092E
:103D6000D101DC968C91882309F48EC087EF96E010
:103D70000E94320FC850DF4F8881C85FD0408E014B
:103D80000F5F1F4F863209F082C080ED96E00E94DF
:103D9000320F62E2CE0189509F4F0E94E3082CE867
:103DA00031E0882311F02FE831E01F928F933F9389
:103DB0002F9386ED91E09F938F931F9250E4F52E01
:103DC000FF921F930F930E941F29C8010E94211187
:103DD000C65FDE4F8881CA50D1401F928F938FEE0D
:103DE00091E09F938F931F92FF921F930F930E94D6
:103DF0001F29C8010E94211187E796E00E94DC0973
:103E0000D1015496FC900FB6F894DEBF0FBECDBF23
:103E1000F1E0FF1609F45CC3FF1608F458C025E072
:103E2000F21609F458C33FE0F31609F457C386EBC2
:103E300094E00E94DC096F2D70E090E080E04AE0A1
:103E40000E944F0F0E94420F46C084E198E00E94FA
:103E5000320FF7CE8E3118F480ED97E016CF81EC5B
:103E600097E013CF87E797E032CF8EE597E03CCF1E
:103E700085E497E047CF8CE297E051CF83E197E06C
:103E80005CCF8AEF96E066CF83EF96E071CF863302
:103E900019F48AEA96E07BCF813319F489E896E039
:103EA00076CF1F928F9386EB91E09F938F931F9213
:103EB00080E48F931F930F930E941F29C8010E94D3
:103EC00021110FB6F894DEBF0FBECDBF62CF8DEFCC
:103ED00094E00E94320FD101D7968C91D797882316
:103EE000C9F1DD968D919C91892BA1F189E495E032
:103EF0000E94320FF10185AD81FF04C087E295E099
:103F00000E94320FD101DD968C9183FF04C084E0C2
:103F100095E00E94320FF10185AD86FF1BC062E281
:103F2000CE0189509F4F0E94E3081F928F9387E034
:103F300092E09F938F931F9280E38F931F930F9331
:103F40000E941F29C8010E9421110FB6F894DEBFFC
:103F50000FBECDBF0E943E0FD10157968D919C910F
:103F6000892B71F085E696E00E94DC09F1016789F2
:103F7000708D90E080E04AE00E944F0F0E942E0F6B
:103F800020E030E0A901D1015F966D917D918D9186
:103F90009C9192970E9473271816ECF583E596E0A2
:103FA0000E94DC09F101678D70A181A192A142E01C
:103FB0000E9431118BE496E00E94DC09D1015F96EA
:103FC000CD90DD90ED90FC90929720E030E0A9013B
:103FD000C701B6010E94732720E030E040E05FE3B4
:103FE00087FD7FC2C701B6010E94A8250E948B26CB
:103FF0008B01F12CE12C83E2E016F1060CF08DE24E
:104000000E94F709BFEFEB1AFB0AE4E0EE16F10499
:1040100091F70E94420FD10151968C910E94160F88
:10402000882309F489C0F10185A18823E1F189E39E
:1040300096E00E94DC09D10195968C910E94930F25
:10404000F1018789908D892B71F187E296E00E94BA
:10405000DC09D10195966C9170E090E080E00E94BF
:10406000C32620E030E048EC52E40E9478276B0140
:104070007C01F1016789708D90E080E00E94C1268B
:104080009B01AC01C701B6010E94192620E030E077
:1040900040E850E40E94A82541E00E94311184E2EA
:1040A00096E00E94320FD10193968D919C91892BBD
:1040B00009F442C082E196E00E94DC09F10163A1AB
:1040C00074A190E080E04AE00E944F0F0E942E0F02
:1040D000D10157968D919C91892B71F180E096E0EA
:1040E0000E94DC09F10163A174A190E080E00E94CC
:1040F000C12620E030E048EC52E40E9478276B01B2
:104100007C01D10157966D917C9190E080E00E94F6
:10411000C1269B01AC01C701B6010E94192620E00F
:1041200030E040E850E40E94A82541E00E943111AF
:104130008DEF95E00E94320FF10181898550823028
:1041400008F045C085898823F9F08BEE95E00E9440
:10415000DC09D10155966C9170E090E080E00E94FE
:10416000C32620E030E040EA50EC0E94782720E0AF
:1041700030E040E253E40E94A82541E00E94311162
:1041800088EE95E00E94320FF10186898823F9F0CC
:1041900086ED95E00E94DC09D10156966C9170E0A5
:1041A00090E080E00E94C32620E030E040EA50E446
:1041B0000E94782720E030E040E253E40E94A725E7
:1041C00041E00E94311183ED95E00E94320F20E022
:1041D00030EC49E754ECF10162A573A584A595A5DF
:1041E0000E941426882391F081EC95E00E94DC095E
:1041F000D1019A966D917D918D919C919D9741E011
:104200000E9431118EEB95E00E94320F20E030ECDD
:1042100049E754ECF10166A577A580A991A90E9410
:104220001426882391F08CEA95E00E94DC09D101E4
:104230009E966D917D918D919C91D19741E00E94C8
:10424000311189EA95E00E94320F0E943E0F87E902
:1042500095E00E94DC09C501B4010E940912772093
:1042600011F0611043C183E895E00E94320FD10143
:1042700051968C910E94160F882309F451C0F101C8
:1042800066A177A180A591A56115710581059105AC
:1042900009F446C01389112309F442C00E94C126C3
:1042A0006B017C01612F70E090E080E00E94C326EA
:1042B0009B01AC01C701B6010E94192620E030E045
:1042C00044E355E40E9419266B017C0120E030E0B4
:1042D00040E251E40E94142611E087FD10C020E066
:1042E00030E040E251E4C701B6010E9419260E9465
:1042F0008B266830710514F067E070E0162F0E947D
:104300003E0F8FE595E00E94DC09612F70E090E0A0
:1043100080E04AE00E944F0F8AE595E00E94320F4C
:104320000E943E0F70E060E0CE0189509F4F0E94D6
:10433000E4100E943E0F772009F48EC0F1E0F615DC
:1043400008F0A8C1CC57DF4FA880C458D040CB5745
:10435000DF4FB880C558D040CA57DF4F0881C658D4
:10436000D040C957DF4F1881C758D04020E830E00F
:104370002C0F3D1F285F3F4FC85DDE4F39832883D8
:10438000C852D140C95DDE4FA882C752D1407B2CB4
:10439000480131E0CA5DDE4F3883C652D140C85D66
:1043A000DE4FA881B981C852D140CD90DD90ED900B
:1043B000FD90C85DDE4FB983A883C852D1409501F6
:1043C000A801C701B6010E947327181614F45601FC
:1043D0008701C95DDE4F2881C752D140372DA40126
:1043E000C701B6010E94142687FF07C0C95DDE4FD2
:1043F000C882C752D1407D2C4701CA5DDE4FB881CB
:10440000C652D140BF5FCA5DDE4FB883C652D140AD
:10441000B611C5CFC95DDE4F2881C752D140372DB7
:10442000A401B501C8010E94A7256B017C012AE9FE
:1044300039E949E95EE30E94732787FD2BC185E7CF
:104440009AE00E94DC0943E0C701B6010E943111E5
:1044500089E59AE00E94320FF10187A9811120C1FC
:104460008DE39AE00E94320F6091650170916601C0
:10447000809167010E94F10ED10151968C910E94AA
:10448000160F81110E94A30D0E943E0F8FE49AE047
:104490000E94320FC55DDE4FE881CB52D140E093E0
:1044A0003F02D101D7968C91E5E6F1E0882319F01F
:1044B00080E5E8E6F1E0918180933C0290933B0235
:1044C00010923A020E94530B109256020C949617C7
:1044D00088EE94E0FECC86ED94E0FBCC86EC94E094
:1044E000F8CCC701B6010E94A72580CDCC57DF4F7D
:1044F0008880C458D040CB57DF4F9880C558D040F3
:10450000CA57DF4FA880C658D040C957DF4FB88080
:10451000C758D040E0E8F0E0EC0FFD1F3496C45DD2
:10452000DE4FF983E883CC52D140CA5DDE4F8882EA
:10453000C652D140C95DDE4F9882C752D140C85D96
:10454000DE4FA882C852D140C65DDE4FB882CA5243
:10455000D14010E000E0061508F07DC00F5F1F4F4E
:104560001F930F9327E232E03F932F931F9256E160
:104570005F9381E090E08C0F9D1F9F938F930E942B
:104580001F29CE0101960E94210FC45DDE4FA88134
:10459000B981CC52D140CD90DD90ED90FD90C45DBD
:1045A000DE4FB983A883CC52D140C701B6010E9427
:1045B00009120FB6F894DEBF0FBECDBF9401A5015E
:1045C000C701B6010E947327181614F4460157015B
:1045D000CA5DDE4F2881C652D140C95DDE4F3881A9
:1045E000C752D140C85DDE4F4881C852D140C65D38
:1045F000DE4F5881CA52D140C701B6010E9414262D
:1046000087FD14C0CA5DDE4FC880C652D140C95D67
:10461000DE4FD880C752D140C85DDE4FE880C85217
:10462000D140C65DDE4FF880CA52D140CA5DDE4F30
:10463000C882C652D140C95DDE4FD882C752D14030
:10464000C85DDE4FE882C852D140C65DDE4FF882B9
:10465000CA52D14080CF81E795E00E94DC09CA5D53
:10466000DE4F2881C652D140C95DDE4F3881C75226
:10467000D140C85DDE4F4881C852D140C65DDE4F93
:104680005881CA52D140B401C5010E94A7250E9499
:104690000912EDCDC55DDE4F1882CB52D140DCCE84
:1046A00081890E94160F81112CC08EE19AE00E9430
:1046B000DC09D1015196CC900C2C000CDD08EE08E1
:1046C000FF084AE0C701B601F7FE0BC08DE20E9469
:1046D000F70966277727CB016C197D098E099F0999
:1046E0004AE00E944F0F82E19AE00E94320FC45CC0
:1046F000DE4F688179818A81CC53D1400E94F10ECE
:10470000C3CE82E09AE00E94320F0E94830C8BEEAF
:1047100099E00E94320F0E94830C0E94A30D0E9418
:104720003E0E8E0109521F4F892B09F053C088E0BD
:10473000F80111928A95E9F789E0D2011D928A95D4
:10474000E9F729E0A201B80183E691E00E94161280
:104750000E941F0E0E94A30DFE0131967F0180E290
:10476000DF011D928A95E9F7CF010E94D30F8823BC
:1047700089F180E2F701DE01A950BF4F01900D924F
:104780008A95E1F7B1016E5E7F4FCE0189509F4F50
:104790000E94D30AB101CE0189509F4F0E94360A70
:1047A000F10187A9811112C084ED99E00E94320FB6
:1047B00086EF98E00E94320FCF5CDE4F68817981EE
:1047C0008A81C153D1400E94F10E5CCE85EA99E006
:1047D0000E94320F812C912C540183949E012F5FF3
:1047E0003F4FC15EDE4F39832883CF51D140AE01A8
:1047F000495E5E4FCF5DDE4F59834883C152D14041
:1048000048E0642E82E899E00E94DC094AE0C50194
:10481000B4010E944F0F80E899E00E94320FCC5CF7
:10482000DE4F688179818A81C453D1400E94570B41
:1048300080E2FE01E950FF4FD80101900D928A9568
:10484000E1F7D80151968C915197807F51968C93C6
:104850004FE060E0C8010E941C0AF80194899F7033
:104860008295807F892B848B48E260E2C8010E9498
:104870001C0AD80155969C9155979F708295807F10
:10488000892B55968C936EEC78E0C8010E94E41059
:104890006BEC78E0C8010E949412882389F00E9492
:1048A000A30D80E2F20111928A95E9F7C2010E94FC
:1048B000D30FF82E811110C08EEA98E00E94320FBB
:1048C00085E199E0E8C05FEF851A950AA50AB50A67
:1048D000FF2009F497CF6CCF4FE060E0C2010E9447
:1048E0001C0A782ED2015496DC90D2949FE0D922F3
:1048F0004FE160E1C2010E941C0ACA5DDE4F88835D
:10490000C652D140F201E588FE2DFF70C95DDE4F31
:10491000F883C752D14048E260E2C2010E941C0AFB
:10492000C82EE2942FE0E2228FE998E00E94DC0991
:1049300087E898E07D1411F08EE798E00E94DC098A
:1049400080E20E94F709CA5DDE4F2881C652D1403D
:10495000C95DDE4F3881C752D14085E798E0231703
:1049600011F08BE698E00E94DC0980E20E94F709D2
:1049700082E698E0CE1411F088E598E00E94320FAC
:104980007D107DC0CE107BC0D20151968C918F706E
:1049900009F075C08FE898E00E94320F0E94A30DC5
:1049A0000E943E0E892B09F5CF5DDE4FE881F9812B
:1049B000C152D140262D11922A95E9F7C15EDE4FF2
:1049C000A881B981CF51D140E9E01D92EA95E9F77C
:1049D00029E0AE014F5F5F4FBE01695E7E4F83E607
:1049E00091E00E9416120E941F0E0E94A30D80E209
:1049F000E82EC15EDE4FA881B981CF51D140EE2DA6
:104A00001D92EA95E9F7CE0101960E94D30FFE01AF
:104A10003196DE01A950BF4F01900D92EA94E1F763
:104A2000C95CDE4F68817981C753D140CE0189507E
:104A30009F4F0E94D30AB101CE0189509F4F0E941F
:104A4000360AD101D7968C91811123C089E599E06E
:104A50000E94320FB6E08B169104A104B10409F054
:104A600032CFF110A5CE80EE98E00E94320FC75CE5
:104A7000DE4F688179818A81C953D1403FCE80E27F
:104A8000F201DE01A950BF4F01900D928A95E1F726
:104A900017CF8FE299E00E94320FF12CDBCF80918B
:104AA000FD029091FE020E9486288091FA02909168
:104AB000FB0297FD03C060E00C9443080895991B26
:104AC00079E004C0991F961708F0961B881F7A9505
:104AD000C9F780950895AA1BBB1B51E107C0AA1F07
:104AE000BB1FA617B70710F0A61BB70B881F991F8F
:104AF0005A95A9F780959095BC01CD010895A1E242
:104B00001A2EAA1BBB1BFD010DC0AA1FBB1FEE1F47
:104B1000FF1FA217B307E407F50720F0A21BB30B92
:104B2000E40BF50B661F771F881F991F1A9469F70E
:104B300060957095809590959B01AC01BD01CF016A
:104B40000895EE0FFF1F0590F491E02D0994505841
:104B5000BB27AA270E94BF250C9439270E942B2728
:104B600038F00E94322720F039F49F3F19F426F4E0
:104B70000C9428270EF4E095E7FB0C942227E92FEC
:104B80000E944A2758F3BA176207730784079507EC
:104B900020F079F4A6F50C946C270EF4E0950B2E1A
:104BA000BA2FA02D0B01B90190010C01CA01A0017F
:104BB0001124FF27591B99F0593F50F4503E68F1DA
:104BC0001A16F040A22F232F342F4427585FF3CF1B
:104BD000469537952795A795F0405395C9F77EF4EC
:104BE0001F16BA0B620B730B840BBAF09150A1F035
:104BF000FF0FBB1F661F771F881FC2F70EC0BA0FBB
:104C0000621F731F841F48F4879577956795B79542
:104C1000F7959E3F08F0B0CF9395880F08F099273D
:104C2000EE0F9795879508950E94FE2608F481E07F
:104C300008950E942D260C9439270E94322758F09F
:104C40000E942B2740F029F45F3F29F00C94222783
:104C500051110C946D270C9428270E944A2768F361
:104C60009923B1F3552391F3951B550BBB27AA2725
:104C700062177307840738F09F5F5F4F220F331F5F
:104C8000441FAA1FA9F335D00E2E3AF0E0E832D027
:104C900091505040E695001CCAF72BD0FE2F29D02A
:104CA000660F771F881FBB1F261737074807AB07FC
:104CB000B0E809F0BB0B802DBF01FF2793585F4F71
:104CC0003AF09E3F510578F00C9422270C946D2702
:104CD0005F3FE4F3983ED4F3869577956795B79553
:104CE000F7959F5FC9F7880F911D9695879597F95E
:104CF0000895E1E0660F771F881FBB1F62177307D7
:104D00008407BA0720F0621B730B840BBA0BEE1FEB
:104D100088F7E09508950E9492266894B1110C944A
:104D20006D2708950E94522788F09F5798F0B92F59
:104D30009927B751B0F0E1F0660F771F881F991FD0
:104D40001AF0BA95C9F714C0B13091F00E946C27DF
:104D5000B1E008950C946C27672F782F8827B85FEF
:104D600039F0B93FCCF3869577956795B395D9F728
:104D70003EF490958095709561957F4F8F4F9F4F32
:104D80000895E89409C097FB3EF49095809570953E
:104D900061957F4F8F4F9F4F9923A9F0F92F96E987
:104DA000BB279395F695879577956795B795F111FC
:104DB000F8CFFAF4BB0F11F460FF1BC06F5F7F4F99
:104DC0008F4F9F4F16C0882311F096E911C07723AB
:104DD00021F09EE8872F762F05C0662371F096E8B4
:104DE000862F70E060E02AF09A95660F771F881F83
:104DF000DAF7880F9695879597F90895990F000827
:104E0000550FAA0BE0E8FEEF16161706E807F9079C
:104E1000C0F012161306E407F50798F0621B730B37
:104E2000840B950B39F40A2661F0232B242B252BB8
:104E300021F408950A2609F4A140A6958FEF811D5B
:104E4000811D089597F99F6780E870E060E00895FC
:104E50009FEF80EC089500240A9416161706180692
:104E60000906089500240A9412161306140605066E
:104E70000895092E0394000C11F4882352F0BB0FFF
:104E800040F4BF2B11F460FF04C06F5F7F4F8F4F62
:104E90009F4F089557FD9058440F551F59F05F3F9D
:104EA00071F04795880F97FB991F61F09F3F79F04C
:104EB00087950895121613061406551FF2CF4695CE
:104EC000F1DF08C0161617061806991FF1CF869550
:104ED0007105610508940895E894BB276627772734
:104EE000CB0197F908950E94FE2608F48FEF0895EC
:104EF0000E948B270C9439270E942B2738F00E94A0
:104F0000322720F0952311F00C9422270C942827A7
:104F100011240C946D270E944A2770F3959FC1F3CA
:104F2000950F50E0551F629FF001729FBB27F00D57
:104F3000B11D639FAA27F00DB11DAA1F649F6627AC
:104F4000B00DA11D661F829F2227B00DA11D621FFB
:104F5000739FB00DA11D621F839FA00D611D221FB5
:104F6000749F3327A00D611D231F849F600D211D99
:104F7000822F762F6A2F11249F5750409AF0F1F01C
:104F800088234AF0EE0FFF1FBB1F661F771F881F85
:104F900091505040A9F79E3F510580F00C94222774
:104FA0000C946D275F3FE4F3983ED4F38695779594
:104FB0006795B795F795E7959F5FC1F7FE2B880F2B
:104FC000911D9695879597F908950E94FE26880B66
:104FD000990B08950F931F93CF93DF938230910520
:104FE00010F482E090E0E0911A03F0911B0330E0AE
:104FF00020E0B0E0A0E0309799F42115310509F4E4
:105000004AC0281B390B24303105D8F58A819B8191
:105010006115710589F1FB0193838283FE0111C043
:10502000408151810281138148175907E0F04817E8
:10503000590799F4109761F012960C9312971396F2
:105040001C933296CF01DF91CF911F910F9108955C
:1050500000931A0310931B03F4CF2115310551F06F
:105060004217530738F0A901DB019A01BD01DF01A6
:10507000F801C1CFEF01F9CF90931B0380931A037E
:10508000CDCFFE01E20FF31F81939193225031099E
:1050900039832883D7CF2091180330911903232B0C
:1050A00041F42091030130910401309319032093BE
:1050B000180320910101309102012115310541F4BD
:1050C0002DB73EB74091050150910601241B350BC9
:1050D000E0911803F0911903E217F307A0F42E1BD7
:1050E0003F0B2817390778F0AC014E5F5F4F24174C
:1050F000350748F04E0F5F1F509319034093180374
:10510000819391939FCFF0E0E0E09CCFCF93DF932A
:105110000097E9F0FC01329713821282A0911A03E2
:10512000B0911B03ED0130E020E01097A1F4208145
:105130003181820F931F2091180330911903281792
:10514000390709F061C0F0931903E0931803DF9168
:10515000CF910895EA01CE17DF07E8F54A815B8118
:105160009E0141155105B1F7E901FB83EA8349919D
:105170005991C40FD51FEC17FD0761F4808191810F
:105180000296840F951FE901998388838281938118
:105190009B838A83F0E0E0E012968D919C911397B7
:1051A0000097B9F52D913C911197CD010296820F90
:1051B000931F20911803309119032817390739F6E6
:1051C000309751F510921B0310921A03B0931903F4
:1051D000A0931803BCCFD383C28340815181840F35
:1051E000951FC817D90761F44E5F5F4F8881998179
:1051F000480F591F518340838A819B819383828307
:105200002115310509F0B0CFF0931B03E0931A0389
:105210009ECFFD01DC01C0CF13821282D7CFFB01EC
:10522000DC0102C001900D9241505040D8F7089522
:10523000FB01DC0101900D920020E1F70895AEE042
:10524000B0E0E5E2F9E20C94DB2B0D891E898F8931
:10525000988D26E02C831A83098397FF02C080E093
:1052600090E801979E838D83AE01455E5F4F698D07
:105270007A8DCE0101960E944F294D815E8157FDA6
:105280000AC02F813885421753070CF49A01020F88
:10529000131FF80110822E96E4E00C94F72BABE07C
:1052A000B0E0E5E5F9E20C94CD2B7C013B018A01ED
:1052B000FC0117821682838181FFC8C1CE0101964D
:1052C0005C01F7019381F30193FD859193FF819137
:1052D0003F01882309F453C1853239F493FD859148
:1052E00093FF81913F01853229F4B70190E00E943C
:1052F0003F2BE7CF912C212C312CFFE1F31538F017
:105300008B3211F190F4803209F1833229F137FCAC
:105310003CC020ED280F2A3050F536FE20C08AE030
:10532000989E200D1124922E06C08D3291F080336C
:1053300071F7689430F8F30193FD859193FF8191A3
:105340003F018111DACF21C0689431F8689432F8B6
:10535000F2CF689433F8EFCF689434F8ECCFEAE0FA
:105360002E9E200D1124222E689435F8E4CF8E3223
:1053700029F436FC04C1689436F8DDCF8C3619F474
:10538000689437F8D8CF8836B1F2982F9F7D95541E
:105390009330E0F08336A1F18337C1F1833509F012
:1053A00063C02801F2E04F0E511CF801C080D1808B
:1053B000692D70E036FC02C06FEF7FEFC6010E94DE
:1053C000292B4C01689437F882010AC00C5F1F4FEB
:1053D000FFE3F98388248394912C6501E89437F8DE
:1053E00033FE2DC0522C8114910471F5552009F41F
:1053F00068CFB70180E290E00E943F2B5A94F6CF2D
:10540000F801808189830E5F1F4FE4CF2801F2E00D
:105410004F0E511CF801C080D180692D70E036FC20
:1054200002C06FEF7FEFC6010E94342B4C01820156
:10543000D5CFB70180E290E00E943F2B2A94281438
:10544000190409F0B0F7CECFF60137FC859137FE8D
:1054500081916F01B70190E00E943F2B51105A9447
:10546000F1E08F1A9108BFCF843619F0893609F020
:1054700077C0F80137FE6BC06081718182819381B2
:105480000C5F1F4FF32DFF763F2E97FF09C09095BD
:105490008095709561957F4F8F4F9F4F689437F837
:1054A0002AE030E0A5010E946F2BC82ECA188C2C70
:1054B000432C36FE0CC0E89440F8C91440F434FE86
:1054C00005C032FC03C0F32DFE7E4F2E892C44FE16
:1054D00095C0FE01EC0DF11D8081803309F087C07D
:1054E000242D297E422E842D8870582E43FC95C091
:1054F00040FE8FC09C2C821418F42C0C922C98180F
:1055000044FE91C0B70180E390E00E943F2B42FE31
:1055100009C088E790E041FE02C088E590E0B7014D
:105520000E943F2BC91408F48AC0CA94D12C9FEF63
:10553000C91AD90ACA0CDB1CF60182916F01B701A6
:1055400090E00E943F2BAC14BD04B1F74FCF6081B7
:105550007181072E000C880B990B0E5F1F4F92CFA5
:10556000D32CE894D4F82AE030E0853739F1232DA4
:10557000297FD22E8F3601F148F48835A9F0F70142
:10558000868197812B96E2E10C94E92B803749F0D4
:105590008837A9F7D4FE02C06894D2F820E130E041
:1055A0000DC06894D4F8F6CF34FE03C0822F866015
:1055B000D82E20E132E002C028E030E0F801D7FE2A
:1055C0000FC060817181828193810C5F1F4FA501A3
:1055D0000E946F2BC82ECA183D2CE89437F867CF6D
:1055E0006081718190E080E00E5F1F4FF0CF42FC40
:1055F00002C0839478CF8394839475CF842D86786A
:1056000009F471CFF6CFB70180E290E00E943F2B02
:1056100083948214C0F3512C73CF522C58188214E7
:1056200008F46ECFF8CF842D867809F47BCF8BE217
:1056300041FE80E247FC8DE2B70190E071CFB701F7
:1056400080E390E00E943F2B9A946CCF8FEF9FEF06
:1056500099CFFC010590615070400110D8F78095FA
:1056600090958E0F9F1F0895FC016150704001902E
:105670000110D8F7809590958E0F9F1F08950F9376
:105680001F93CF93DF93182F092FEB018B8181FD9F
:1056900009C01FEF0FEF812F902FDF91CF911F9146
:1056A0000F91089582FF14C02E813F818C819D81CE
:1056B000281739073CF4E881F981CF0101969983D5
:1056C000888310838E819F8101969F838E83E3CF91
:1056D000E885F985812F0995892BA1F3DACFFA01A5
:1056E000AA27283051F1203181F1E8946F936E7F21
:1056F0006E5F7F4F8F4F9F4FAF4FB1E03ED0B4E012
:105700003CD0670F781F891F9A1FA11D680F791F52
:105710008A1F911DA11D6A0F711D811D911DA11D63
:1057200020D009F468943F912AE0269F1124301973
:10573000305D3193DEF6CF010895462F4770405D0E
:105740004193B3E00FD0C9F7F6CF462F4F70405DBD
:105750004A3318F0495D31FD4052419302D0A9F718
:10576000EACFB4E0A6959795879577956795BA9512
:10577000C9F700976105710508959B01AC010A2ED8
:1057800006945795479537952795BA95C9F7620FAF
:10579000731F841F951FA01D08952F923F924F9253
:1057A0005F926F927F928F929F92AF92BF92CF92B1
:1057B000DF92EF92FF920F931F93CF93DF93CDB7BA
:1057C000DEB7CA1BDB0B0FB6F894DEBF0FBECDBF32
:1057D00009942A88398848885F846E847D848C8403
:1057E0009B84AA84B984C884DF80EE80FD800C810C
:1057F0001B81AA81B981CE0FD11D0FB6F894DEBFEF
:105800000FBECDBFED01089516E0C9ECD6E004C08F
:10581000FE010E94A1252196CA3CD107C9F7F89440
:02582000FFCFB8
:105822000100001C038000000000503C00D996A536
:10583200D9FFFFAA00D42C0002DC0ADC0B55A5001C
:1058420000503199DC0C523132333435F0001021E2
:10585200D700000CD70000FFD4500102D604050285
:10586200D6380202D4BA0001D68D0501D609030149
:10587200D65B0304D65F0507D48D0007D719000451
:10588200500050DA04005000500000000000008F69
:1058920009EF081C09FC094D092B093F090D0A00F3
:1058A2006E616E00696E66006F7666004F4B004255
:1058B200414400424C3138787800424C253032580D
:1058C2002530325800253032642F253032642F3291
:1058D20030253032640042797465203120206F72A5
:1058E2006967696E203A20556E6B6E6F776E20285D
:1058F2002530325829004E7962626C65203334209B
:105902006C6F636B203A20257320282558290042AA
:1059120079746520313920737461747573203A206B
:105922002825303258290020204E7962626C652089
:105932003334203D20307825582020286D7573742B
:105942002062652030290043656C6C202532752069
:0A595200202020202020203A200011
:00000001FF
